{
  "contractName": "Artonomous",
  "abi": [
    {
      "constant": true,
      "inputs": [],
      "name": "soulToken",
      "outputs": [
        {
          "name": "",
          "type": "address"
        }
      ],
      "payable": false,
      "stateMutability": "view",
      "type": "function"
    },
    {
      "constant": true,
      "inputs": [],
      "name": "generatorRegistry",
      "outputs": [
        {
          "name": "",
          "type": "address"
        }
      ],
      "payable": false,
      "stateMutability": "view",
      "type": "function"
    },
    {
      "constant": true,
      "inputs": [],
      "name": "artPieceToken",
      "outputs": [
        {
          "name": "",
          "type": "address"
        }
      ],
      "payable": false,
      "stateMutability": "view",
      "type": "function"
    },
    {
      "constant": true,
      "inputs": [],
      "name": "auctionHouse",
      "outputs": [
        {
          "name": "",
          "type": "address"
        }
      ],
      "payable": false,
      "stateMutability": "view",
      "type": "function"
    },
    {
      "inputs": [
        {
          "name": "_auctionHouse",
          "type": "address"
        },
        {
          "name": "_generatorRegistry",
          "type": "address"
        },
        {
          "name": "_artPieceToken",
          "type": "address"
        },
        {
          "name": "_soulToken",
          "type": "address"
        }
      ],
      "payable": false,
      "stateMutability": "nonpayable",
      "type": "constructor"
    },
    {
      "anonymous": false,
      "inputs": [
        {
          "indexed": false,
          "name": "creator",
          "type": "address"
        }
      ],
      "name": "Constructed",
      "type": "event"
    },
    {
      "constant": true,
      "inputs": [],
      "name": "getInfo",
      "outputs": [
        {
          "name": "",
          "type": "address"
        },
        {
          "name": "",
          "type": "address"
        },
        {
          "name": "",
          "type": "address"
        },
        {
          "name": "",
          "type": "address"
        }
      ],
      "payable": false,
      "stateMutability": "view",
      "type": "function"
    },
    {
      "constant": false,
      "inputs": [],
      "name": "startAuction",
      "outputs": [],
      "payable": false,
      "stateMutability": "nonpayable",
      "type": "function"
    },
    {
      "constant": false,
      "inputs": [],
      "name": "buyPiece",
      "outputs": [],
      "payable": true,
      "stateMutability": "payable",
      "type": "function"
    }
  ],
  "bytecode": "0x608060405234801561001057600080fd5b50604051608080610d8183398101806040528101908080519060200190929190805190602001909291908051906020019092919080519060200190929190505050836000806101000a81548173ffffffffffffffffffffffffffffffffffffffff021916908373ffffffffffffffffffffffffffffffffffffffff16021790555082600160006101000a81548173ffffffffffffffffffffffffffffffffffffffff021916908373ffffffffffffffffffffffffffffffffffffffff16021790555081600260006101000a81548173ffffffffffffffffffffffffffffffffffffffff021916908373ffffffffffffffffffffffffffffffffffffffff16021790555080600360006101000a81548173ffffffffffffffffffffffffffffffffffffffff021916908373ffffffffffffffffffffffffffffffffffffffff1602179055507e40d54d5e5b097202376b55bcbaaedd2ee468ce4496f1d30030c4e5308bf94d33604051808273ffffffffffffffffffffffffffffffffffffffff1673ffffffffffffffffffffffffffffffffffffffff16815260200191505060405180910390a150505050610bb8806101c96000396000f300608060405260043610610083576000357c0100000000000000000000000000000000000000000000000000000000900463ffffffff1680632d5f4a1e1461008857806339b68bc5146100df5780635a9b0b89146101365780636b64c769146102265780638a0e495d1461023d578063c01569f914610294578063ed9152c81461029e575b600080fd5b34801561009457600080fd5b5061009d6102f5565b604051808273ffffffffffffffffffffffffffffffffffffffff1673ffffffffffffffffffffffffffffffffffffffff16815260200191505060405180910390f35b3480156100eb57600080fd5b506100f461031b565b604051808273ffffffffffffffffffffffffffffffffffffffff1673ffffffffffffffffffffffffffffffffffffffff16815260200191505060405180910390f35b34801561014257600080fd5b5061014b610341565b604051808573ffffffffffffffffffffffffffffffffffffffff1673ffffffffffffffffffffffffffffffffffffffff1681526020018473ffffffffffffffffffffffffffffffffffffffff1673ffffffffffffffffffffffffffffffffffffffff1681526020018373ffffffffffffffffffffffffffffffffffffffff1673ffffffffffffffffffffffffffffffffffffffff1681526020018273ffffffffffffffffffffffffffffffffffffffff1673ffffffffffffffffffffffffffffffffffffffff16815260200194505050505060405180910390f35b34801561023257600080fd5b5061023b6103ec565b005b34801561024957600080fd5b50610252610696565b604051808273ffffffffffffffffffffffffffffffffffffffff1673ffffffffffffffffffffffffffffffffffffffff16815260200191505060405180910390f35b61029c6106bc565b005b3480156102aa57600080fd5b506102b3610b67565b604051808273ffffffffffffffffffffffffffffffffffffffff1673ffffffffffffffffffffffffffffffffffffffff16815260200191505060405180910390f35b600360009054906101000a900473ffffffffffffffffffffffffffffffffffffffff1681565b600160009054906101000a900473ffffffffffffffffffffffffffffffffffffffff1681565b6000806000806000809054906101000a900473ffffffffffffffffffffffffffffffffffffffff16600160009054906101000a900473ffffffffffffffffffffffffffffffffffffffff16600260009054906101000a900473ffffffffffffffffffffffffffffffffffffffff16600360009054906101000a900473ffffffffffffffffffffffffffffffffffffffff16839350829250819150809050935093509350935090919293565b600080439150600160009054906101000a900473ffffffffffffffffffffffffffffffffffffffff1673ffffffffffffffffffffffffffffffffffffffff1663471b2e2a6040518163ffffffff167c0100000000000000000000000000000000000000000000000000000000028152600401602060405180830381600087803b15801561047857600080fd5b505af115801561048c573d6000803e3d6000fd5b505050506040513d60208110156104a257600080fd5b81019080805190602001909291905050509050600260009054906101000a900473ffffffffffffffffffffffffffffffffffffffff1673ffffffffffffffffffffffffffffffffffffffff16630d4d15133084846040518463ffffffff167c0100000000000000000000000000000000000000000000000000000000028152600401808473ffffffffffffffffffffffffffffffffffffffff1673ffffffffffffffffffffffffffffffffffffffff1681526020018381526020018273ffffffffffffffffffffffffffffffffffffffff1673ffffffffffffffffffffffffffffffffffffffff1681526020019350505050602060405180830381600087803b1580156105ae57600080fd5b505af11580156105c2573d6000803e3d6000fd5b505050506040513d60208110156105d857600080fd5b8101908080519060200190929190505050506000809054906101000a900473ffffffffffffffffffffffffffffffffffffffff1673ffffffffffffffffffffffffffffffffffffffff166395805dad836040518263ffffffff167c010000000000000000000000000000000000000000000000000000000002815260040180828152602001915050600060405180830381600087803b15801561067a57600080fd5b505af115801561068e573d6000803e3d6000fd5b505050505050565b600260009054906101000a900473ffffffffffffffffffffffffffffffffffffffff1681565b6000806000806000809054906101000a900473ffffffffffffffffffffffffffffffffffffffff1673ffffffffffffffffffffffffffffffffffffffff1663eb91d37e6040518163ffffffff167c0100000000000000000000000000000000000000000000000000000000028152600401602060405180830381600087803b15801561074757600080fd5b505af115801561075b573d6000803e3d6000fd5b505050506040513d602081101561077157600080fd5b8101908080519060200190929190505050341015151561081f576040517f08c379a00000000000000000000000000000000000000000000000000000000081526004018080602001828103825260218152602001807f4e6f7420656e6f7567682066756e64732073656e7420746f207075726368617381526020017f650000000000000000000000000000000000000000000000000000000000000081525060400191505060405180910390fd5b6000809054906101000a900473ffffffffffffffffffffffffffffffffffffffff1673ffffffffffffffffffffffffffffffffffffffff16637327df256040518163ffffffff167c0100000000000000000000000000000000000000000000000000000000028152600401606060405180830381600087803b1580156108a457600080fd5b505af11580156108b8573d6000803e3d6000fd5b505050506040513d60608110156108ce57600080fd5b81019080805190602001909291908051906020019092919080519060200190929190505050809450819650829550505050600260009054906101000a900473ffffffffffffffffffffffffffffffffffffffff1673ffffffffffffffffffffffffffffffffffffffff166323b872dd3033866040518463ffffffff167c0100000000000000000000000000000000000000000000000000000000028152600401808473ffffffffffffffffffffffffffffffffffffffff1673ffffffffffffffffffffffffffffffffffffffff1681526020018373ffffffffffffffffffffffffffffffffffffffff1673ffffffffffffffffffffffffffffffffffffffff1681526020018281526020019350505050600060405180830381600087803b1580156109f857600080fd5b505af1158015610a0c573d6000803e3d6000fd5b505050506000809054906101000a900473ffffffffffffffffffffffffffffffffffffffff1673ffffffffffffffffffffffffffffffffffffffff1663efbe1c1c6040518163ffffffff167c0100000000000000000000000000000000000000000000000000000000028152600401600060405180830381600087803b158015610a9557600080fd5b505af1158015610aa9573d6000803e3d6000fd5b50505050610ab56103ec565b4282111515610b0a573373ffffffffffffffffffffffffffffffffffffffff166108fc349081150290604051600060405180830381858888f19350505050158015610b04573d6000803e3d6000fd5b50610b61565b83340390506000811115610b60573373ffffffffffffffffffffffffffffffffffffffff166108fc829081150290604051600060405180830381858888f19350505050158015610b5e573d6000803e3d6000fd5b505b5b50505050565b6000809054906101000a900473ffffffffffffffffffffffffffffffffffffffff16815600a165627a7a72305820611a7daaaafd17450de84cd3043dd71200956f9e3c8d9fb405501b2873459e8d0029",
  "source": "pragma solidity ^0.4.24;\n\nimport \"./tokens/SoulToken.sol\";\nimport \"./tokens/ArtPieceToken.sol\";\nimport \"./AuctionHouse.sol\";\nimport \"./Generator.sol\";\nimport \"./GeneratorRegistry.sol\";\n\ncontract Artonomous {\n  AuctionHouse public auctionHouse;\n  GeneratorRegistry public generatorRegistry;\n  ArtPieceToken public artPieceToken;\n  SoulToken public soulToken;\n\n  // verifies that an auction is already in progress\n  modifier canBuy() {\n    require(msg.value >= auctionHouse.getCurrentPrice(), \"Not enough funds sent to purchase\");\n    _;\n  }\n\n  event Constructed(address creator);\n\n  constructor(AuctionHouse _auctionHouse, GeneratorRegistry _generatorRegistry, ArtPieceToken _artPieceToken, SoulToken _soulToken) public {\n    auctionHouse = _auctionHouse;\n    generatorRegistry = _generatorRegistry;\n    artPieceToken = _artPieceToken;\n    soulToken = _soulToken;\n\n    emit Constructed(msg.sender);\n  }\n\n  function getInfo() public view returns (address, address, address, address) {\n    return (auctionHouse, generatorRegistry, artPieceToken, soulToken);\n  }\n\n  function startAuction() public {\n    uint256 tokenId = block.number;\n    Generator generator = generatorRegistry.getActiveGenerator();\n    artPieceToken.mint(this, tokenId, generator);\n    auctionHouse.start(tokenId);\n  }\n\n  function buyPiece() public canBuy payable {\n    uint256 price;\n    uint256 tokenId;\n    uint256 endTime;\n    (tokenId, price, endTime) = auctionHouse.getAuction();\n\n    artPieceToken.transferFrom(this, msg.sender, tokenId);\n\n    auctionHouse.end();\n\n    startAuction();\n    \n    // Claim art for free\n    if (endTime <= now) {\n      // Refund if any eth paid\n      msg.sender.transfer(msg.value);\n      return;\n    }\n\n    uint256 remainder = msg.value - price;\n     // refund extra value\n    if (remainder > 0) {\n      msg.sender.transfer(remainder);\n    }\n  }\n}\n",
  "sourcePath": "/Users/tarrence/code/crypto/ethberlin/contracts/Artonomous.sol",
  "compiler": {
    "name": "solc",
    "version": "0.4.24+commit.e67f0147.Emscripten.clang"
  },
  "schemaVersion": "2.0.1",
  "updatedAt": "2018-09-09T06:46:19.597Z"
}