{
  "contractName": "AuctionHouse",
  "abi": [
    {
      "constant": true,
      "inputs": [],
      "name": "AUCTION_LENGTH",
      "outputs": [
        {
          "name": "",
          "type": "uint256"
        }
      ],
      "payable": false,
      "stateMutability": "view",
      "type": "function"
    },
    {
      "constant": false,
      "inputs": [],
      "name": "renounceOwnership",
      "outputs": [],
      "payable": false,
      "stateMutability": "nonpayable",
      "type": "function"
    },
    {
      "constant": true,
      "inputs": [],
      "name": "auction",
      "outputs": [
        {
          "name": "tokenId",
          "type": "uint256"
        },
        {
          "name": "startingPrice",
          "type": "uint256"
        },
        {
          "name": "endTime",
          "type": "uint256"
        }
      ],
      "payable": false,
      "stateMutability": "view",
      "type": "function"
    },
    {
      "constant": true,
      "inputs": [],
      "name": "owner",
      "outputs": [
        {
          "name": "",
          "type": "address"
        }
      ],
      "payable": false,
      "stateMutability": "view",
      "type": "function"
    },
    {
      "constant": false,
      "inputs": [
        {
          "name": "_newOwner",
          "type": "address"
        }
      ],
      "name": "transferOwnership",
      "outputs": [],
      "payable": false,
      "stateMutability": "nonpayable",
      "type": "function"
    },
    {
      "anonymous": false,
      "inputs": [
        {
          "indexed": false,
          "name": "tokenId",
          "type": "uint256"
        },
        {
          "indexed": false,
          "name": "startingPrice",
          "type": "uint256"
        },
        {
          "indexed": false,
          "name": "endTime",
          "type": "uint256"
        }
      ],
      "name": "Started",
      "type": "event"
    },
    {
      "anonymous": false,
      "inputs": [
        {
          "indexed": false,
          "name": "tokenId",
          "type": "uint256"
        },
        {
          "indexed": false,
          "name": "price",
          "type": "uint256"
        },
        {
          "indexed": false,
          "name": "endTime",
          "type": "uint256"
        }
      ],
      "name": "Ended",
      "type": "event"
    },
    {
      "anonymous": false,
      "inputs": [
        {
          "indexed": true,
          "name": "previousOwner",
          "type": "address"
        }
      ],
      "name": "OwnershipRenounced",
      "type": "event"
    },
    {
      "anonymous": false,
      "inputs": [
        {
          "indexed": true,
          "name": "previousOwner",
          "type": "address"
        },
        {
          "indexed": true,
          "name": "newOwner",
          "type": "address"
        }
      ],
      "name": "OwnershipTransferred",
      "type": "event"
    },
    {
      "constant": false,
      "inputs": [],
      "name": "end",
      "outputs": [],
      "payable": false,
      "stateMutability": "nonpayable",
      "type": "function"
    },
    {
      "constant": false,
      "inputs": [
        {
          "name": "tokenId",
          "type": "uint256"
        }
      ],
      "name": "start",
      "outputs": [],
      "payable": false,
      "stateMutability": "nonpayable",
      "type": "function"
    },
    {
      "constant": true,
      "inputs": [],
      "name": "getStartingPrice",
      "outputs": [
        {
          "name": "",
          "type": "uint256"
        }
      ],
      "payable": false,
      "stateMutability": "pure",
      "type": "function"
    },
    {
      "constant": true,
      "inputs": [],
      "name": "getCurrentPrice",
      "outputs": [
        {
          "name": "",
          "type": "uint256"
        }
      ],
      "payable": false,
      "stateMutability": "view",
      "type": "function"
    },
    {
      "constant": true,
      "inputs": [],
      "name": "getAuction",
      "outputs": [
        {
          "name": "",
          "type": "uint256"
        },
        {
          "name": "",
          "type": "uint256"
        },
        {
          "name": "",
          "type": "uint256"
        }
      ],
      "payable": false,
      "stateMutability": "view",
      "type": "function"
    }
  ],
  "bytecode": "0x6080604052336000806101000a81548173ffffffffffffffffffffffffffffffffffffffff021916908373ffffffffffffffffffffffffffffffffffffffff1602179055506108c1806100536000396000f3006080604052600436106100a4576000357c0100000000000000000000000000000000000000000000000000000000900463ffffffff168063635af9ad146100a9578063715018a6146100d45780637327df25146100eb5780637d9f6db5146101245780638da5cb5b1461015d57806395805dad146101b4578063cebd31bc146101e1578063eb91d37e1461020c578063efbe1c1c14610237578063f2fde38b1461024e575b600080fd5b3480156100b557600080fd5b506100be610291565b6040518082815260200191505060405180910390f35b3480156100e057600080fd5b506100e9610298565b005b3480156100f757600080fd5b5061010061039a565b60405180848152602001838152602001828152602001935050505060405180910390f35b34801561013057600080fd5b506101396103be565b60405180848152602001838152602001828152602001935050505060405180910390f35b34801561016957600080fd5b506101726103d6565b604051808273ffffffffffffffffffffffffffffffffffffffff1673ffffffffffffffffffffffffffffffffffffffff16815260200191505060405180910390f35b3480156101c057600080fd5b506101df600480360381019080803590602001909291905050506103fb565b005b3480156101ed57600080fd5b506101f6610573565b6040518082815260200191505060405180910390f35b34801561021857600080fd5b50610221610583565b6040518082815260200191505060405180910390f35b34801561024357600080fd5b5061024c610600565b005b34801561025a57600080fd5b5061028f600480360381019080803573ffffffffffffffffffffffffffffffffffffffff1690602001909291905050506106cd565b005b6201518081565b6000809054906101000a900473ffffffffffffffffffffffffffffffffffffffff1673ffffffffffffffffffffffffffffffffffffffff163373ffffffffffffffffffffffffffffffffffffffff161415156102f357600080fd5b6000809054906101000a900473ffffffffffffffffffffffffffffffffffffffff1673ffffffffffffffffffffffffffffffffffffffff167ff8df31144d9c2f0f6b59d69b8b98abd5459d07f2742c4df920b25aae33c6482060405160405180910390a260008060006101000a81548173ffffffffffffffffffffffffffffffffffffffff021916908373ffffffffffffffffffffffffffffffffffffffff160217905550565b60008060006001600001546103ad610583565b600160020154925092509250909192565b60018060000154908060010154908060020154905083565b6000809054906101000a900473ffffffffffffffffffffffffffffffffffffffff1681565b600080600060016002015414151561047b576040517f08c379a000000000000000000000000000000000000000000000000000000000815260040180806020018281038252601e8152602001807f41756374696f6e20697320616c726561647920696e2070726f6772657373000081525060200191505060405180910390fd5b6000809054906101000a900473ffffffffffffffffffffffffffffffffffffffff1673ffffffffffffffffffffffffffffffffffffffff163373ffffffffffffffffffffffffffffffffffffffff161415156104d657600080fd5b62015180420191506104e6610573565b90506060604051908101604052808481526020018281526020018381525060016000820151816000015560208201518160010155604082015181600201559050507f26c855da155dff1d53a27312a5086a629d96aa13ae465bed5a3ba39a315d750683828460405180848152602001838152602001828152602001935050505060405180910390a1505050565b6000670de0b6b3a7640000905090565b600080600080600160020154141561059e57600092506105fb565b6201518060016002015403915081420390506105f86105e2620151806105d4846105c6610573565b61073490919063ffffffff16565b61076c90919063ffffffff16565b6105ea610573565b61078290919063ffffffff16565b92505b505090565b6000809054906101000a900473ffffffffffffffffffffffffffffffffffffffff1673ffffffffffffffffffffffffffffffffffffffff163373ffffffffffffffffffffffffffffffffffffffff1614151561065b57600080fd5b7f94942738dac5813db86bc09e12c382aaa6824a675cfd6f834a8e2d5a964ac3c460016000015461068a610583565b4260405180848152602001838152602001828152602001935050505060405180910390a16001600080820160009055600182016000905560028201600090555050565b6000809054906101000a900473ffffffffffffffffffffffffffffffffffffffff1673ffffffffffffffffffffffffffffffffffffffff163373ffffffffffffffffffffffffffffffffffffffff1614151561072857600080fd5b6107318161079b565b50565b6000808314156107475760009050610766565b818302905081838281151561075857fe5b0414151561076257fe5b8090505b92915050565b6000818381151561077957fe5b04905092915050565b600082821115151561079057fe5b818303905092915050565b600073ffffffffffffffffffffffffffffffffffffffff168173ffffffffffffffffffffffffffffffffffffffff16141515156107d757600080fd5b8073ffffffffffffffffffffffffffffffffffffffff166000809054906101000a900473ffffffffffffffffffffffffffffffffffffffff1673ffffffffffffffffffffffffffffffffffffffff167f8be0079c531659141344cd1fd0a4f28419497f9722a3daafe3b4186f6b6457e060405160405180910390a3806000806101000a81548173ffffffffffffffffffffffffffffffffffffffff021916908373ffffffffffffffffffffffffffffffffffffffff160217905550505600a165627a7a7230582040158d30fed6e073195c7788978f4b909d33d1b37070aa938aee52cddbbcdd780029",
  "source": "pragma solidity ^0.4.24;\n\nimport \"openzeppelin-solidity/contracts/math/SafeMath.sol\";\nimport \"openzeppelin-solidity/contracts/ownership/Ownable.sol\";\n\nimport \"./tokens/ArtPieceToken.sol\";\n\ncontract AuctionHouse is Ownable {\n  using SafeMath for uint256;\n\n  event Started(uint256 tokenId, uint256 startingPrice, uint256 endTime);\n  event Ended(uint256 tokenId, uint256 price, uint256 endTime);\n\n  struct Auction {\n    uint256 tokenId;\n    uint256 startingPrice;\n    uint256 endTime;\n  }\n\n  uint public constant AUCTION_LENGTH = 86400; // 24 hours\n  Auction public auction;\n\n  // verifies that an auction is not already in progress\n  modifier canStart() {\n    require(auction.endTime == 0, \"Auction is already in progress\");\n    _;\n  }\n\n  function end() external onlyOwner {\n    emit Ended(auction.tokenId, getCurrentPrice(), now);\n    delete auction;\n  }\n\n  function start(uint256 tokenId) external canStart onlyOwner {\n    uint256 endTime = now + AUCTION_LENGTH;\n    uint256 startingPrice = getStartingPrice();\n\n    auction = Auction({\n      tokenId: tokenId,\n      endTime: endTime, // solhint-disable-line not-rely-on-time\n      startingPrice: startingPrice\n    });\n\n    emit Started(tokenId, startingPrice, endTime);\n  }\n\n  function getStartingPrice() public pure returns (uint256) {\n    return 10 ** 18;\n  }\n\n  function getCurrentPrice() public view returns (uint256) {\n    if (auction.endTime == 0) {\n      return 0;\n    }\n\n    uint256 startTime = auction.endTime - AUCTION_LENGTH;\n    uint256 elapsed = now - startTime;\n\n    // Price decays linearly, reaching 0 at endTime\n    return getStartingPrice().sub(getStartingPrice().mul(elapsed).div(AUCTION_LENGTH));\n  }\n\n  function getAuction() public view returns (uint256, uint256, uint256) {\n    return (\n      auction.tokenId,\n      getCurrentPrice(),\n      auction.endTime\n    );\n  }\n}\n",
  "sourcePath": "/Users/tarrence/code/crypto/ethberlin/contracts/AuctionHouse.sol",
  "compiler": {
    "name": "solc",
    "version": "0.4.24+commit.e67f0147.Emscripten.clang"
  },
  "schemaVersion": "2.0.1",
  "updatedAt": "2018-09-09T06:46:19.586Z"
}