{
  "contractName": "GeneratorRegistry",
  "abi": [
    {
      "constant": true,
      "inputs": [],
      "name": "factory",
      "outputs": [
        {
          "name": "",
          "type": "address"
        }
      ],
      "payable": false,
      "stateMutability": "view",
      "type": "function"
    },
    {
      "constant": true,
      "inputs": [],
      "name": "token",
      "outputs": [
        {
          "name": "",
          "type": "address"
        }
      ],
      "payable": false,
      "stateMutability": "view",
      "type": "function"
    },
    {
      "inputs": [
        {
          "name": "_token",
          "type": "address"
        }
      ],
      "payable": false,
      "stateMutability": "nonpayable",
      "type": "constructor"
    },
    {
      "anonymous": false,
      "inputs": [
        {
          "indexed": true,
          "name": "registryEntry",
          "type": "address"
        },
        {
          "indexed": true,
          "name": "eventType",
          "type": "bytes32"
        }
      ],
      "name": "RegistryEntryEvent",
      "type": "event"
    },
    {
      "constant": true,
      "inputs": [],
      "name": "getActiveGenerator",
      "outputs": [
        {
          "name": "",
          "type": "address"
        }
      ],
      "payable": false,
      "stateMutability": "view",
      "type": "function"
    },
    {
      "constant": false,
      "inputs": [
        {
          "name": "_generator",
          "type": "address"
        }
      ],
      "name": "addGenerator",
      "outputs": [],
      "payable": false,
      "stateMutability": "nonpayable",
      "type": "function"
    },
    {
      "constant": false,
      "inputs": [
        {
          "name": "_factory",
          "type": "address"
        }
      ],
      "name": "setFactory",
      "outputs": [],
      "payable": false,
      "stateMutability": "nonpayable",
      "type": "function"
    },
    {
      "constant": false,
      "inputs": [
        {
          "name": "_eventType",
          "type": "bytes32"
        }
      ],
      "name": "fireRegistryEvent",
      "outputs": [],
      "payable": false,
      "stateMutability": "nonpayable",
      "type": "function"
    },
    {
      "constant": true,
      "inputs": [],
      "name": "getToken",
      "outputs": [
        {
          "name": "",
          "type": "address"
        }
      ],
      "payable": false,
      "stateMutability": "view",
      "type": "function"
    }
  ],
  "bytecode": "0x608060405234801561001057600080fd5b506040516020806105228339810180604052810190808051906020019092919050505080600160006101000a81548173ffffffffffffffffffffffffffffffffffffffff021916908373ffffffffffffffffffffffffffffffffffffffff1602179055505061049e806100846000396000f300608060405260043610610083576000357c0100000000000000000000000000000000000000000000000000000000900463ffffffff16806321df0da714610088578063471b2e2a146100df5780635bb47808146101365780638a19d29714610179578063c45a0155146101aa578063cffafe2614610201578063fc0c546a14610244575b600080fd5b34801561009457600080fd5b5061009d61029b565b604051808273ffffffffffffffffffffffffffffffffffffffff1673ffffffffffffffffffffffffffffffffffffffff16815260200191505060405180910390f35b3480156100eb57600080fd5b506100f46102c5565b604051808273ffffffffffffffffffffffffffffffffffffffff1673ffffffffffffffffffffffffffffffffffffffff16815260200191505060405180910390f35b34801561014257600080fd5b50610177600480360381019080803573ffffffffffffffffffffffffffffffffffffffff1690602001909291905050506102ef565b005b34801561018557600080fd5b506101a86004803603810190808035600019169060200190929190505050610332565b005b3480156101b657600080fd5b506101bf61037d565b604051808273ffffffffffffffffffffffffffffffffffffffff1673ffffffffffffffffffffffffffffffffffffffff16815260200191505060405180910390f35b34801561020d57600080fd5b50610242600480360381019080803573ffffffffffffffffffffffffffffffffffffffff1690602001909291905050506103a2565b005b34801561025057600080fd5b5061025961044c565b604051808273ffffffffffffffffffffffffffffffffffffffff1673ffffffffffffffffffffffffffffffffffffffff16815260200191505060405180910390f35b6000600160009054906101000a900473ffffffffffffffffffffffffffffffffffffffff16905090565b6000600260009054906101000a900473ffffffffffffffffffffffffffffffffffffffff16905090565b806000806101000a81548173ffffffffffffffffffffffffffffffffffffffff021916908373ffffffffffffffffffffffffffffffffffffffff16021790555050565b80600019163373ffffffffffffffffffffffffffffffffffffffff167f63919d45d8283bd611da7ff6a0a83da925bbafc67b7ccf93e93ef02125b5418d60405160405180910390a350565b6000809054906101000a900473ffffffffffffffffffffffffffffffffffffffff1681565b80600260006101000a81548173ffffffffffffffffffffffffffffffffffffffff021916908373ffffffffffffffffffffffffffffffffffffffff16021790555060038190806001815401808255809150509060018203906000526020600020016000909192909190916101000a81548173ffffffffffffffffffffffffffffffffffffffff021916908373ffffffffffffffffffffffffffffffffffffffff1602179055505050565b600160009054906101000a900473ffffffffffffffffffffffffffffffffffffffff16815600a165627a7a72305820b80d8986bc992ec1543f7b330879dfcea389b7d94de0a0a18b5d202913b1fd620029",
  "source": "pragma solidity ^0.4.24;\n\nimport \"openzeppelin-solidity/contracts/token/ERC20/StandardToken.sol\";\n\nimport \"./GeneratorFactory.sol\";\nimport \"./Generator.sol\";\n\ncontract GeneratorRegistry {\n  event RegistryEntryEvent(address indexed registryEntry, bytes32 indexed eventType);\n\n  GeneratorFactory public factory;\n  StandardToken public token;\n  Generator activeGenerator;\n  Generator[] generators;\n\n  constructor(StandardToken _token) public {\n    token = _token;\n  }\n\n  function getActiveGenerator() public view returns (Generator) {\n    return activeGenerator;\n  }\n\n  function addGenerator(Generator _generator) public {\n    activeGenerator = _generator;\n    generators.push(_generator);\n  }\n\n  function setFactory(GeneratorFactory _factory) public {\n    factory = _factory;\n  }\n\n  function fireRegistryEvent(bytes32 _eventType) public {\n    emit RegistryEntryEvent(msg.sender, _eventType);\n  }\n\n  function getToken() public view returns (address) {\n    return token;\n  }\n}\n",
  "sourcePath": "/Users/tarrence/code/crypto/ethberlin/contracts/GeneratorRegistry.sol",
  "compiler": {
    "name": "solc",
    "version": "0.4.24+commit.e67f0147.Emscripten.clang"
  },
  "schemaVersion": "2.0.1",
  "updatedAt": "2018-09-08T13:24:21.396Z"
}