{
  "contractName": "Generator",
  "abi": [
    {
      "constant": true,
      "inputs": [],
      "name": "creator",
      "outputs": [
        {
          "name": "",
          "type": "address"
        }
      ],
      "payable": false,
      "stateMutability": "view",
      "type": "function"
    },
    {
      "constant": true,
      "inputs": [],
      "name": "name",
      "outputs": [
        {
          "name": "",
          "type": "string"
        }
      ],
      "payable": false,
      "stateMutability": "view",
      "type": "function"
    },
    {
      "constant": true,
      "inputs": [],
      "name": "initialized",
      "outputs": [
        {
          "name": "",
          "type": "bool"
        }
      ],
      "payable": false,
      "stateMutability": "view",
      "type": "function"
    },
    {
      "constant": true,
      "inputs": [],
      "name": "sourceUri",
      "outputs": [
        {
          "name": "",
          "type": "string"
        }
      ],
      "payable": false,
      "stateMutability": "view",
      "type": "function"
    },
    {
      "constant": true,
      "inputs": [],
      "name": "registry",
      "outputs": [
        {
          "name": "",
          "type": "address"
        }
      ],
      "payable": false,
      "stateMutability": "view",
      "type": "function"
    },
    {
      "constant": true,
      "inputs": [],
      "name": "token",
      "outputs": [
        {
          "name": "",
          "type": "address"
        }
      ],
      "payable": false,
      "stateMutability": "view",
      "type": "function"
    },
    {
      "constant": false,
      "inputs": [
        {
          "name": "_registry",
          "type": "address"
        },
        {
          "name": "_name",
          "type": "string"
        },
        {
          "name": "_creator",
          "type": "address"
        },
        {
          "name": "_sourceUri",
          "type": "string"
        }
      ],
      "name": "initialize",
      "outputs": [],
      "payable": false,
      "stateMutability": "nonpayable",
      "type": "function"
    },
    {
      "constant": true,
      "inputs": [],
      "name": "getGenerator",
      "outputs": [
        {
          "name": "",
          "type": "string"
        },
        {
          "name": "",
          "type": "address"
        },
        {
          "name": "",
          "type": "string"
        },
        {
          "name": "",
          "type": "address"
        }
      ],
      "payable": false,
      "stateMutability": "view",
      "type": "function"
    }
  ],
  "bytecode": "0x608060405234801561001057600080fd5b506149f7806100206000396000f30060806040526004361062000097576000357c0100000000000000000000000000000000000000000000000000000000900463ffffffff16806302d05d3f146200009c57806306fdde0314620000f6578063158ef93e146200018c5780631e2ca26014620001be5780634472670914620003295780637b10399914620003bf5780637d8365121462000419578063fc0c546a146200050b575b600080fd5b348015620000a957600080fd5b50620000b462000565565b604051808273ffffffffffffffffffffffffffffffffffffffff1673ffffffffffffffffffffffffffffffffffffffff16815260200191505060405180910390f35b3480156200010357600080fd5b506200010e6200058b565b6040518080602001828103825283818151815260200191508051906020019080838360005b838110156200015057808201518184015260208101905062000133565b50505050905090810190601f1680156200017e5780820380516001836020036101000a031916815260200191505b509250505060405180910390f35b3480156200019957600080fd5b50620001a46200062d565b604051808215151515815260200191505060405180910390f35b348015620001cb57600080fd5b50620001d66200063f565b60405180806020018573ffffffffffffffffffffffffffffffffffffffff1673ffffffffffffffffffffffffffffffffffffffff168152602001806020018473ffffffffffffffffffffffffffffffffffffffff1673ffffffffffffffffffffffffffffffffffffffff168152602001838103835287818151815260200191508051906020019080838360005b838110156200028057808201518184015260208101905062000263565b50505050905090810190601f168015620002ae5780820380516001836020036101000a031916815260200191505b50838103825285818151815260200191508051906020019080838360005b83811015620002e9578082015181840152602081019050620002cc565b50505050905090810190601f168015620003175780820380516001836020036101000a031916815260200191505b50965050505050505060405180910390f35b3480156200033657600080fd5b5062000341620007e2565b6040518080602001828103825283818151815260200191508051906020019080838360005b838110156200038357808201518184015260208101905062000366565b50505050905090810190601f168015620003b15780820380516001836020036101000a031916815260200191505b509250505060405180910390f35b348015620003cc57600080fd5b50620003d762000884565b604051808273ffffffffffffffffffffffffffffffffffffffff1673ffffffffffffffffffffffffffffffffffffffff16815260200191505060405180910390f35b3480156200042657600080fd5b5062000509600480360381019080803573ffffffffffffffffffffffffffffffffffffffff169060200190929190803590602001908201803590602001908080601f0160208091040260200160405190810160405280939291908181526020018383808284378201915050505050509192919290803573ffffffffffffffffffffffffffffffffffffffff169060200190929190803590602001908201803590602001908080601f0160208091040260200160405190810160405280939291908181526020018383808284378201915050505050509192919290505050620008aa565b005b3480156200051857600080fd5b506200052362000d23565b604051808273ffffffffffffffffffffffffffffffffffffffff1673ffffffffffffffffffffffffffffffffffffffff16815260200191505060405180910390f35b600260009054906101000a900473ffffffffffffffffffffffffffffffffffffffff1681565b60018054600181600116156101000203166002900480601f016020809104026020016040519081016040528092919081815260200182805460018160011615610100020316600290048015620006255780601f10620005f95761010080835404028352916020019162000625565b820191906000526020600020905b8154815290600101906020018083116200060757829003601f168201915b505050505081565b6000809054906101000a900460ff1681565b60606000606060006001600260009054906101000a900473ffffffffffffffffffffffffffffffffffffffff166003600460009054906101000a900473ffffffffffffffffffffffffffffffffffffffff16838054600181600116156101000203166002900480601f0160208091040260200160405190810160405280929190818152602001828054600181600116156101000203166002900480156200072a5780601f10620006fe576101008083540402835291602001916200072a565b820191906000526020600020905b8154815290600101906020018083116200070c57829003601f168201915b50505050509350818054600181600116156101000203166002900480601f016020809104026020016040519081016040528092919081815260200182805460018160011615610100020316600290048015620007ca5780601f106200079e57610100808354040283529160200191620007ca565b820191906000526020600020905b815481529060010190602001808311620007ac57829003601f168201915b50505050509150809050935093509350935090919293565b60038054600181600116156101000203166002900480601f0160208091040260200160405190810160405280929190818152602001828054600181600116156101000203166002900480156200087c5780601f1062000850576101008083540402835291602001916200087c565b820191906000526020600020905b8154815290600101906020018083116200085e57829003601f168201915b505050505081565b600060019054906101000a900473ffffffffffffffffffffffffffffffffffffffff1681565b6000809054906101000a900460ff1615151562000955576040517f08c379a000000000000000000000000000000000000000000000000000000000815260040180806020018281038252602e8152602001807f436f6e747261637420696e7374616e63652068617320616c726561647920626581526020017f656e20696e697469616c697a656400000000000000000000000000000000000081525060400191505060405180910390fd5b82600190805190602001906200096d92919062000d49565b5083600060016101000a81548173ffffffffffffffffffffffffffffffffffffffff021916908373ffffffffffffffffffffffffffffffffffffffff16021790555081600260006101000a81548173ffffffffffffffffffffffffffffffffffffffff021916908373ffffffffffffffffffffffffffffffffffffffff160217905550806003908051906020019062000a0892919062000d49565b5060016012600060019054906101000a900473ffffffffffffffffffffffffffffffffffffffff1673ffffffffffffffffffffffffffffffffffffffff166321df0da76040518163ffffffff167c0100000000000000000000000000000000000000000000000000000000028152600401602060405180830381600087803b15801562000a9457600080fd5b505af115801562000aa9573d6000803e3d6000fd5b505050506040513d602081101562000ac057600080fd5b8101908080519060200190929190505050620a2c2a6404a817c80062000ae562000dd0565b8080602001806020018760ff1681526020018673ffffffffffffffffffffffffffffffffffffffff1673ffffffffffffffffffffffffffffffffffffffff1681526020018563ffffffff16815260200184815260200183810383528881815460018160011615610100020316600290048152602001915080546001816001161561010002031660029004801562000bc05780601f1062000b945761010080835404028352916020019162000bc0565b820191906000526020600020905b81548152906001019060200180831162000ba257829003601f168201915b5050838103825260008152602001602001975050505050505050604051809103906000f08015801562000bf7573d6000803e3d6000fd5b50600460006101000a81548173ffffffffffffffffffffffffffffffffffffffff021916908373ffffffffffffffffffffffffffffffffffffffff160217905550600060019054906101000a900473ffffffffffffffffffffffffffffffffffffffff1673ffffffffffffffffffffffffffffffffffffffff16638a19d2976040518163ffffffff167c010000000000000000000000000000000000000000000000000000000002815260040180807f636f6e73747275637465640000000000000000000000000000000000000000008152506020019050600060405180830381600087803b15801562000cea57600080fd5b505af115801562000cff573d6000803e3d6000fd5b5050505060016000806101000a81548160ff02191690831515021790555050505050565b600460009054906101000a900473ffffffffffffffffffffffffffffffffffffffff1681565b828054600181600116156101000203166002900490600052602060002090601f016020900481019282601f1062000d8c57805160ff191683800117855562000dbd565b8280016001018555821562000dbd579182015b8281111562000dbc57825182559160200191906001019062000d9f565b5b50905062000dcc919062000de1565b5090565b604051613bc28062000e0a83390190565b62000e0691905b8082111562000e0257600081600090555060010162000de8565b5090565b90560060806040526040805190810160405280600381526020017f302e330000000000000000000000000000000000000000000000000000000000815250600390805190602001906200005192919062001105565b506040805190810160405280600381526020017f302e330000000000000000000000000000000000000000000000000000000000815250608490805190602001906200009f92919062001105565b506000608955348015620000b257600080fd5b5060405162003bc238038062003bc2833981018060405281019080805182019291906020018051820192919060200180519060200190929190805190602001909291908051906020019092919080519060200190929190505050858585701c35fedd14ffffffffffffffffffffffff600460206080811015156200013257fe5b0181905550701b0ce43b323fffffffffffffffffffffff600460216080811015156200015a57fe5b01819055507019f0028ec1ffffffffffffffffffffffff600460226080811015156200018257fe5b01819055507018ded91f0e7fffffffffffffffffffffff60046023608081101515620001aa57fe5b01819055507017d8ec7f0417ffffffffffffffffffffff60046024608081101515620001d257fe5b01819055507016ddc6556cdbffffffffffffffffffffff60046025608081101515620001fa57fe5b01819055507015ecf52776a1ffffffffffffffffffffff600460266080811015156200022257fe5b01819055507015060c256cb2ffffffffffffffffffffff600460276080811015156200024a57fe5b0181905550701428a2f98d72ffffffffffffffffffffff600460286080811015156200027257fe5b01819055507013545598e5c23fffffffffffffffffffff600460296080811015156200029a57fe5b0181905550701288c4161ce1dfffffffffffffffffffff6004602a608081101515620002c257fe5b01819055507011c592761c666fffffffffffffffffffff6004602b608081101515620002ea57fe5b018190555070110a688680a757ffffffffffffffffffff6004602c6080811015156200031257fe5b0181905550701056f1b5bedf77ffffffffffffffffffff6004602d6080811015156200033a57fe5b0181905550700faadceceeff8bffffffffffffffffffff6004602e6080811015156200036257fe5b0181905550700f05dc6b27edadffffffffffffffffffff6004602f6080811015156200038a57fe5b0181905550700e67a5a25da4107fffffffffffffffffff60046030608081101515620003b257fe5b0181905550700dcff115b14eedffffffffffffffffffff60046031608081101515620003da57fe5b0181905550700d3e7a392431239fffffffffffffffffff600460326080811015156200040257fe5b0181905550700cb2ff529eb71e4fffffffffffffffffff600460336080811015156200042a57fe5b0181905550700c2d415c3db974afffffffffffffffffff600460346080811015156200045257fe5b0181905550700bad03e7d883f69bffffffffffffffffff600460356080811015156200047a57fe5b0181905550700b320d03b2c343d5ffffffffffffffffff60046036608081101515620004a257fe5b0181905550700abc25204e02828dffffffffffffffffff60046037608081101515620004ca57fe5b0181905550700a4b16f74ee4bb207fffffffffffffffff60046038608081101515620004f257fe5b01819055507009deaf736ac1f569ffffffffffffffffff600460396080811015156200051a57fe5b0181905550700976bd9952c7aa957fffffffffffffffff6004603a6080811015156200054257fe5b01819055507009131271922eaa606fffffffffffffffff6004603b6080811015156200056a57fe5b01819055507008b380f3558668c46fffffffffffffffff6004603c6080811015156200059257fe5b0181905550700857ddf0117efa215bffffffffffffffff6004603d608081101515620005ba57fe5b01819055507007ffffffffffffffffffffffffffffffff6004603e608081101515620005e257fe5b01819055507007abbf6f6abb9d087fffffffffffffffff6004603f6080811015156200060a57fe5b018190555070075af62cbac95f7dfa7fffffffffffffff600460406080811015156200063257fe5b018190555070070d7fb7452e187ac13fffffffffffffff600460416080811015156200065a57fe5b01819055507006c3390ecc8af379295fffffffffffffff600460426080811015156200068257fe5b018190555070067c00a3b07ffc01fd6fffffffffffffff60046043608081101515620006aa57fe5b0181905550700637b647c39cbb9d3d27ffffffffffffff60046044608081101515620006d257fe5b01819055507005f63b1fc104dbd39587ffffffffffffff60046045608081101515620006fa57fe5b01819055507005b771955b36e12f7235ffffffffffffff600460466080811015156200072257fe5b018190555070057b3d49dda84556d6f6ffffffffffffff600460476080811015156200074a57fe5b018190555070054183095b2c8ececf30ffffffffffffff600460486080811015156200077257fe5b018190555070050a28be635ca2b888f77fffffffffffff600460496080811015156200079a57fe5b01819055507004d5156639708c9db33c3fffffffffffff6004604a608081101515620007c257fe5b01819055507004a23105873875bd52dfdfffffffffffff6004604b608081101515620007ea57fe5b0181905550700471649d87199aa990756fffffffffffff6004604c6080811015156200081257fe5b01819055507004429a21a029d4c1457cfbffffffffffff6004604d6080811015156200083a57fe5b0181905550700415bc6d6fb7dd71af2cb3ffffffffffff6004604e6080811015156200086257fe5b01819055507003eab73b3bbfe282243ce1ffffffffffff6004604f6080811015156200088a57fe5b01819055507003c1771ac9fb6b4c18e229ffffffffffff60046050608081101515620008b257fe5b0181905550700399e96897690418f785257fffffffffff60046051608081101515620008da57fe5b0181905550700373fc456c53bb779bf0ea9fffffffffff600460526080811015156200090257fe5b018190555070034f9e8e490c48e67e6ab8bfffffffffff600460536080811015156200092a57fe5b018190555070032cbfd4a7adc790560b3337ffffffffff600460546080811015156200095257fe5b018190555070030b50570f6e5d2acca94613ffffffffff600460556080811015156200097a57fe5b01819055507002eb40f9f620fda6b56c2861ffffffffff60046056608081101515620009a257fe5b01819055507002cc8340ecb0d0f520a6af58ffffffffff60046057608081101515620009ca57fe5b01819055507002af09481380a0a35cf1ba02ffffffffff60046058608081101515620009f257fe5b0181905550700292c5bdd3b92ec810287b1b3fffffffff6004605960808110151562000a1a57fe5b0181905550700277abdcdab07d5a77ac6d6b9fffffffff6004605a60808110151562000a4257fe5b018190555070025daf6654b1eaa55fd64df5efffffffff6004605b60808110151562000a6a57fe5b0181905550700244c49c648baa98192dce88b7ffffffff6004605c60808110151562000a9257fe5b018190555070022ce03cd5619a311b2471268bffffffff6004605d60808110151562000aba57fe5b0181905550700215f77c045fbe885654a44a0fffffffff6004605e60808110151562000ae257fe5b01819055507001ffffffffffffffffffffffffffffffff6004605f60808110151562000b0a57fe5b01819055507001eaefdbdaaee7421fc4d3ede5ffffffff6004606060808110151562000b3257fe5b01819055507001d6bd8b2eb257df7e8ca57b09bfffffff6004606160808110151562000b5a57fe5b01819055507001c35fedd14b861eb0443f7f133fffffff6004606260808110151562000b8257fe5b01819055507001b0ce43b322bcde4a56e8ada5afffffff6004606360808110151562000baa57fe5b018190555070019f0028ec1fff007f5a195a39dfffffff6004606460808110151562000bd257fe5b018190555070018ded91f0e72ee74f49b15ba527ffffff6004606560808110151562000bfa57fe5b018190555070017d8ec7f04136f4e5615fd41a63ffffff6004606660808110151562000c2257fe5b018190555070016ddc6556cdb84bdc8d12d22e6fffffff6004606760808110151562000c4a57fe5b018190555070015ecf52776a1155b5bd8395814f7fffff6004606860808110151562000c7257fe5b018190555070015060c256cb23b3b3cc3754cf40ffffff6004606960808110151562000c9a57fe5b01819055507001428a2f98d728ae223ddab715be3fffff6004606a60808110151562000cc257fe5b018190555070013545598e5c23276ccf0ede68034fffff6004606b60808110151562000cea57fe5b01819055507001288c4161ce1d6f54b7f61081194fffff6004606c60808110151562000d1257fe5b018190555070011c592761c666aa641d5a01a40f17ffff6004606d60808110151562000d3a57fe5b0181905550700110a688680a7530515f3e6e6cfdcdffff6004606e60808110151562000d6257fe5b01819055507001056f1b5bedf75c6bcb2ce8aed428ffff6004606f60808110151562000d8a57fe5b01819055506ffaadceceeff8a0890f3875f008277fff6004607060808110151562000db157fe5b01819055506ff05dc6b27edad306388a600f6ba0bfff6004607160808110151562000dd857fe5b01819055506fe67a5a25da41063de1495d5b18cdbfff6004607260808110151562000dff57fe5b01819055506fdcff115b14eedde6fc3aa5353f2e4fff6004607360808110151562000e2657fe5b01819055506fd3e7a3924312399f9aae2e0f868f8fff6004607460808110151562000e4d57fe5b01819055506fcb2ff529eb71e41582cccd5a1ee26fff6004607560808110151562000e7457fe5b01819055506fc2d415c3db974ab32a51840c0b67edff6004607660808110151562000e9b57fe5b01819055506fbad03e7d883f69ad5b0a186184e06bff6004607760808110151562000ec257fe5b01819055506fb320d03b2c343d4829abd6075f0cc5ff6004607860808110151562000ee957fe5b01819055506fabc25204e02828d73c6e80bcdb1a95bf6004607960808110151562000f1057fe5b01819055506fa4b16f74ee4bb2040a1ec6c15fbbf2df6004607a60808110151562000f3757fe5b01819055506f9deaf736ac1f569deb1b5ae3f36c130f6004607b60808110151562000f5e57fe5b01819055506f976bd9952c7aa957f5937d790ef650376004607c60808110151562000f8557fe5b01819055506f9131271922eaa6064b73a22d0bd4f2bf6004607d60808110151562000fac57fe5b01819055506f8b380f3558668c46c91c49a2f8e967b96004607e60808110151562000fd357fe5b01819055506f857ddf0117efa215952912839f6473e66004607f60808110151562000ffa57fe5b018190555033608560006101000a81548173ffffffffffffffffffffffffffffffffffffffff021916908373ffffffffffffffffffffffffffffffffffffffff16021790555082608a90805190602001906200105892919062001105565b5081608b90805190602001906200107192919062001105565b5080608c60006101000a81548160ff021916908360ff16021790555050505082608660006101000a81548173ffffffffffffffffffffffffffffffffffffffff021916908373ffffffffffffffffffffffffffffffffffffffff16021790555081608860006101000a81548163ffffffff021916908363ffffffff16021790555080608981905550505050505050620011b4565b828054600181600116156101000203166002900490600052602060002090601f016020900481019282601f106200114857805160ff191683800117855562001179565b8280016001018555821562001179579182015b82811115620011785782518255916020019190600101906200115b565b5b5090506200118891906200118c565b5090565b620011b191905b80821115620011ad57600081600090555060010162001193565b5090565b90565b6129fe80620011c46000396000f30060806040526004361061013e576000357c0100000000000000000000000000000000000000000000000000000000900463ffffffff16806306fdde0314610143578063095ea7b3146101d35780630c7d5cd81461023857806318160ddd1461026f57806323b872dd1461029a57806329a00e7c1461031f578063313ce5671461038457806349f9b0f7146103b557806354fd4d501461041a57806366188463146104aa57806370a082311461050f578063715018a6146105665780638da5cb5b1461057d57806395d89b41146105d457806396365d4414610664578063a9059cbb1461068f578063bf1fe420146106f4578063d73dd62314610721578063d96a094a14610786578063dd62ed3e146107cb578063e4849b3214610842578063f2fde38b14610887578063f4325d67146108ca578063fe173b9714610921575b600080fd5b34801561014f57600080fd5b5061015861094c565b6040518080602001828103825283818151815260200191508051906020019080838360005b8381101561019857808201518184015260208101905061017d565b50505050905090810190601f1680156101c55780820380516001836020036101000a031916815260200191505b509250505060405180910390f35b3480156101df57600080fd5b5061021e600480360381019080803573ffffffffffffffffffffffffffffffffffffffff169060200190929190803590602001909291905050506109ea565b604051808215151515815260200191505060405180910390f35b34801561024457600080fd5b5061024d610adc565b604051808263ffffffff1663ffffffff16815260200191505060405180910390f35b34801561027b57600080fd5b50610284610af2565b6040518082815260200191505060405180910390f35b3480156102a657600080fd5b50610305600480360381019080803573ffffffffffffffffffffffffffffffffffffffff169060200190929190803573ffffffffffffffffffffffffffffffffffffffff16906020019092919080359060200190929190505050610afc565b604051808215151515815260200191505060405180910390f35b34801561032b57600080fd5b5061036e6004803603810190808035906020019092919080359060200190929190803563ffffffff16906020019092919080359060200190929190505050610eb7565b6040518082815260200191505060405180910390f35b34801561039057600080fd5b50610399610fb8565b604051808260ff1660ff16815260200191505060405180910390f35b3480156103c157600080fd5b506104046004803603810190808035906020019092919080359060200190929190803563ffffffff16906020019092919080359060200190929190505050610fcb565b6040518082815260200191505060405180910390f35b34801561042657600080fd5b5061042f6110ff565b6040518080602001828103825283818151815260200191508051906020019080838360005b8381101561046f578082015181840152602081019050610454565b50505050905090810190601f16801561049c5780820380516001836020036101000a031916815260200191505b509250505060405180910390f35b3480156104b657600080fd5b506104f5600480360381019080803573ffffffffffffffffffffffffffffffffffffffff1690602001909291908035906020019092919050505061119d565b604051808215151515815260200191505060405180910390f35b34801561051b57600080fd5b50610550600480360381019080803573ffffffffffffffffffffffffffffffffffffffff16906020019092919050505061142f565b6040518082815260200191505060405180910390f35b34801561057257600080fd5b5061057b611477565b005b34801561058957600080fd5b5061059261157c565b604051808273ffffffffffffffffffffffffffffffffffffffff1673ffffffffffffffffffffffffffffffffffffffff16815260200191505060405180910390f35b3480156105e057600080fd5b506105e96115a2565b6040518080602001828103825283818151815260200191508051906020019080838360005b8381101561062957808201518184015260208101905061060e565b50505050905090810190601f1680156106565780820380516001836020036101000a031916815260200191505b509250505060405180910390f35b34801561067057600080fd5b50610679611640565b6040518082815260200191505060405180910390f35b34801561069b57600080fd5b506106da600480360381019080803573ffffffffffffffffffffffffffffffffffffffff16906020019092919080359060200190929190505050611646565b604051808215151515815260200191505060405180910390f35b34801561070057600080fd5b5061071f60048036038101908080359060200190929190505050611866565b005b34801561072d57600080fd5b5061076c600480360381019080803573ffffffffffffffffffffffffffffffffffffffff169060200190929190803590602001909291905050506118db565b604051808215151515815260200191505060405180910390f35b34801561079257600080fd5b506107b160048036038101908080359060200190929190505050611ad7565b604051808215151515815260200191505060405180910390f35b3480156107d757600080fd5b5061082c600480360381019080803573ffffffffffffffffffffffffffffffffffffffff169060200190929190803573ffffffffffffffffffffffffffffffffffffffff169060200190929190505050611d5d565b6040518082815260200191505060405180910390f35b34801561084e57600080fd5b5061086d60048036038101908080359060200190929190505050611de4565b604051808215151515815260200191505060405180910390f35b34801561089357600080fd5b506108c8600480360381019080803573ffffffffffffffffffffffffffffffffffffffff169060200190929190505050612085565b005b3480156108d657600080fd5b506108df6120ed565b604051808273ffffffffffffffffffffffffffffffffffffffff1673ffffffffffffffffffffffffffffffffffffffff16815260200191505060405180910390f35b34801561092d57600080fd5b50610936612113565b6040518082815260200191505060405180910390f35b608a8054600181600116156101000203166002900480601f0160208091040260200160405190810160405280929190818152602001828054600181600116156101000203166002900480156109e25780601f106109b7576101008083540402835291602001916109e2565b820191906000526020600020905b8154815290600101906020018083116109c557829003601f168201915b505050505081565b600081600260003373ffffffffffffffffffffffffffffffffffffffff1673ffffffffffffffffffffffffffffffffffffffff16815260200190815260200160002060008573ffffffffffffffffffffffffffffffffffffffff1673ffffffffffffffffffffffffffffffffffffffff168152602001908152602001600020819055508273ffffffffffffffffffffffffffffffffffffffff163373ffffffffffffffffffffffffffffffffffffffff167f8c5be1e5ebec7d5bd14f71427d1e84f3dd0314c0f7b2291e5b200ac8c7c3b925846040518082815260200191505060405180910390a36001905092915050565b608860009054906101000a900463ffffffff1681565b6000600154905090565b60008060008573ffffffffffffffffffffffffffffffffffffffff1673ffffffffffffffffffffffffffffffffffffffff168152602001908152602001600020548211151515610b4b57600080fd5b600260008573ffffffffffffffffffffffffffffffffffffffff1673ffffffffffffffffffffffffffffffffffffffff16815260200190815260200160002060003373ffffffffffffffffffffffffffffffffffffffff1673ffffffffffffffffffffffffffffffffffffffff168152602001908152602001600020548211151515610bd657600080fd5b600073ffffffffffffffffffffffffffffffffffffffff168373ffffffffffffffffffffffffffffffffffffffff1614151515610c1257600080fd5b610c63826000808773ffffffffffffffffffffffffffffffffffffffff1673ffffffffffffffffffffffffffffffffffffffff1681526020019081526020016000205461211990919063ffffffff16565b6000808673ffffffffffffffffffffffffffffffffffffffff1673ffffffffffffffffffffffffffffffffffffffff16815260200190815260200160002081905550610cf6826000808673ffffffffffffffffffffffffffffffffffffffff1673ffffffffffffffffffffffffffffffffffffffff1681526020019081526020016000205461213290919063ffffffff16565b6000808573ffffffffffffffffffffffffffffffffffffffff1673ffffffffffffffffffffffffffffffffffffffff16815260200190815260200160002081905550610dc782600260008773ffffffffffffffffffffffffffffffffffffffff1673ffffffffffffffffffffffffffffffffffffffff16815260200190815260200160002060003373ffffffffffffffffffffffffffffffffffffffff1673ffffffffffffffffffffffffffffffffffffffff1681526020019081526020016000205461211990919063ffffffff16565b600260008673ffffffffffffffffffffffffffffffffffffffff1673ffffffffffffffffffffffffffffffffffffffff16815260200190815260200160002060003373ffffffffffffffffffffffffffffffffffffffff1673ffffffffffffffffffffffffffffffffffffffff168152602001908152602001600020819055508273ffffffffffffffffffffffffffffffffffffffff168473ffffffffffffffffffffffffffffffffffffffff167fddf252ad1be2c89b69c2b068fc378daa952ba7f163c4a11628f55a4df523b3ef846040518082815260200191505060405180910390a3600190509392505050565b60008060008060008089118015610ece5750600088115b8015610ee0575060008763ffffffff16115b8015610efb5750620f424063ffffffff168763ffffffff1611155b1515610f0657600080fd5b6000861415610f185760009450610fac565b620f424063ffffffff168763ffffffff161415610f5b57610f5488610f46888c61214e90919063ffffffff16565b61218690919063ffffffff16565b9450610fac565b610f6e888761213290919063ffffffff16565b9150610f7f828989620f424061219c565b80945081955050508260ff16610f9e858b61214e90919063ffffffff16565b9060020a9004905088810394505b50505050949350505050565b608c60009054906101000a900460ff1681565b60008060008060008060008a118015610fe45750600089115b8015610ff6575060008863ffffffff16115b80156110115750620f424063ffffffff168863ffffffff1611155b801561101d5750898711155b151561102857600080fd5b600087141561103a57600095506110f2565b8987141561104a578895506110f2565b620f424063ffffffff168863ffffffff16141561108d576110868a611078898c61214e90919063ffffffff16565b61218690919063ffffffff16565b95506110f2565b868a0392506110a18a84620f42408b61219c565b80955081965050506110bc858a61214e90919063ffffffff16565b91508360ff16899060020a0290506110ef856110e1838561211990919063ffffffff16565b61218690919063ffffffff16565b95505b5050505050949350505050565b60848054600181600116156101000203166002900480601f0160208091040260200160405190810160405280929190818152602001828054600181600116156101000203166002900480156111955780601f1061116a57610100808354040283529160200191611195565b820191906000526020600020905b81548152906001019060200180831161117857829003601f168201915b505050505081565b600080600260003373ffffffffffffffffffffffffffffffffffffffff1673ffffffffffffffffffffffffffffffffffffffff16815260200190815260200160002060008573ffffffffffffffffffffffffffffffffffffffff1673ffffffffffffffffffffffffffffffffffffffff16815260200190815260200160002054905080831015156112af576000600260003373ffffffffffffffffffffffffffffffffffffffff1673ffffffffffffffffffffffffffffffffffffffff16815260200190815260200160002060008673ffffffffffffffffffffffffffffffffffffffff1673ffffffffffffffffffffffffffffffffffffffff16815260200190815260200160002081905550611343565b6112c2838261211990919063ffffffff16565b600260003373ffffffffffffffffffffffffffffffffffffffff1673ffffffffffffffffffffffffffffffffffffffff16815260200190815260200160002060008673ffffffffffffffffffffffffffffffffffffffff1673ffffffffffffffffffffffffffffffffffffffff168152602001908152602001600020819055505b8373ffffffffffffffffffffffffffffffffffffffff163373ffffffffffffffffffffffffffffffffffffffff167f8c5be1e5ebec7d5bd14f71427d1e84f3dd0314c0f7b2291e5b200ac8c7c3b925600260003373ffffffffffffffffffffffffffffffffffffffff1673ffffffffffffffffffffffffffffffffffffffff16815260200190815260200160002060008873ffffffffffffffffffffffffffffffffffffffff1673ffffffffffffffffffffffffffffffffffffffff168152602001908152602001600020546040518082815260200191505060405180910390a3600191505092915050565b60008060008373ffffffffffffffffffffffffffffffffffffffff1673ffffffffffffffffffffffffffffffffffffffff168152602001908152602001600020549050919050565b608560009054906101000a900473ffffffffffffffffffffffffffffffffffffffff1673ffffffffffffffffffffffffffffffffffffffff163373ffffffffffffffffffffffffffffffffffffffff161415156114d357600080fd5b608560009054906101000a900473ffffffffffffffffffffffffffffffffffffffff1673ffffffffffffffffffffffffffffffffffffffff167ff8df31144d9c2f0f6b59d69b8b98abd5459d07f2742c4df920b25aae33c6482060405160405180910390a26000608560006101000a81548173ffffffffffffffffffffffffffffffffffffffff021916908373ffffffffffffffffffffffffffffffffffffffff160217905550565b608560009054906101000a900473ffffffffffffffffffffffffffffffffffffffff1681565b608b8054600181600116156101000203166002900480601f0160208091040260200160405190810160405280929190818152602001828054600181600116156101000203166002900480156116385780601f1061160d57610100808354040283529160200191611638565b820191906000526020600020905b81548152906001019060200180831161161b57829003601f168201915b505050505081565b60875481565b60008060003373ffffffffffffffffffffffffffffffffffffffff1673ffffffffffffffffffffffffffffffffffffffff16815260200190815260200160002054821115151561169557600080fd5b600073ffffffffffffffffffffffffffffffffffffffff168373ffffffffffffffffffffffffffffffffffffffff16141515156116d157600080fd5b611722826000803373ffffffffffffffffffffffffffffffffffffffff1673ffffffffffffffffffffffffffffffffffffffff1681526020019081526020016000205461211990919063ffffffff16565b6000803373ffffffffffffffffffffffffffffffffffffffff1673ffffffffffffffffffffffffffffffffffffffff168152602001908152602001600020819055506117b5826000808673ffffffffffffffffffffffffffffffffffffffff1673ffffffffffffffffffffffffffffffffffffffff1681526020019081526020016000205461213290919063ffffffff16565b6000808573ffffffffffffffffffffffffffffffffffffffff1673ffffffffffffffffffffffffffffffffffffffff168152602001908152602001600020819055508273ffffffffffffffffffffffffffffffffffffffff163373ffffffffffffffffffffffffffffffffffffffff167fddf252ad1be2c89b69c2b068fc378daa952ba7f163c4a11628f55a4df523b3ef846040518082815260200191505060405180910390a36001905092915050565b608560009054906101000a900473ffffffffffffffffffffffffffffffffffffffff1673ffffffffffffffffffffffffffffffffffffffff163373ffffffffffffffffffffffffffffffffffffffff161415156118c257600080fd5b6000811115156118d157600080fd5b8060898190555050565b600061196c82600260003373ffffffffffffffffffffffffffffffffffffffff1673ffffffffffffffffffffffffffffffffffffffff16815260200190815260200160002060008673ffffffffffffffffffffffffffffffffffffffff1673ffffffffffffffffffffffffffffffffffffffff1681526020019081526020016000205461213290919063ffffffff16565b600260003373ffffffffffffffffffffffffffffffffffffffff1673ffffffffffffffffffffffffffffffffffffffff16815260200190815260200160002060008573ffffffffffffffffffffffffffffffffffffffff1673ffffffffffffffffffffffffffffffffffffffff168152602001908152602001600020819055508273ffffffffffffffffffffffffffffffffffffffff163373ffffffffffffffffffffffffffffffffffffffff167f8c5be1e5ebec7d5bd14f71427d1e84f3dd0314c0f7b2291e5b200ac8c7c3b925600260003373ffffffffffffffffffffffffffffffffffffffff1673ffffffffffffffffffffffffffffffffffffffff16815260200190815260200160002060008773ffffffffffffffffffffffffffffffffffffffff1673ffffffffffffffffffffffffffffffffffffffff168152602001908152602001600020546040518082815260200191505060405180910390a36001905092915050565b6000806089543a11151515611ae857fe5b608660009054906101000a900473ffffffffffffffffffffffffffffffffffffffff1673ffffffffffffffffffffffffffffffffffffffff166323b872dd3330866040518463ffffffff167c0100000000000000000000000000000000000000000000000000000000028152600401808473ffffffffffffffffffffffffffffffffffffffff1673ffffffffffffffffffffffffffffffffffffffff1681526020018373ffffffffffffffffffffffffffffffffffffffff1673ffffffffffffffffffffffffffffffffffffffff1681526020018281526020019350505050602060405180830381600087803b158015611be157600080fd5b505af1158015611bf5573d6000803e3d6000fd5b505050506040513d6020811015611c0b57600080fd5b81019080805190602001909291905050501515611c2757600080fd5b611c49600154608754608860009054906101000a900463ffffffff1634610eb7565b9050611c608160015461213290919063ffffffff16565b600181905550611cb7816000803373ffffffffffffffffffffffffffffffffffffffff1673ffffffffffffffffffffffffffffffffffffffff1681526020019081526020016000205461213290919063ffffffff16565b6000803373ffffffffffffffffffffffffffffffffffffffff1673ffffffffffffffffffffffffffffffffffffffff16815260200190815260200160002081905550611d0e8360875461213290919063ffffffff16565b6087819055507fe7360c0fa1984a85874443100f5b25dd4f84192659660eb199f6c96e11defbcb8184604051808381526020018281526020019250505060405180910390a16001915050919050565b6000600260008473ffffffffffffffffffffffffffffffffffffffff1673ffffffffffffffffffffffffffffffffffffffff16815260200190815260200160002060008373ffffffffffffffffffffffffffffffffffffffff1673ffffffffffffffffffffffffffffffffffffffff16815260200190815260200160002054905092915050565b6000806089543a11151515611df557fe5b600083118015611e435750826000803373ffffffffffffffffffffffffffffffffffffffff1673ffffffffffffffffffffffffffffffffffffffff1681526020019081526020016000205410155b1515611e4e57600080fd5b611e70600154608754608860009054906101000a900463ffffffff1686610fcb565b9050608660009054906101000a900473ffffffffffffffffffffffffffffffffffffffff1673ffffffffffffffffffffffffffffffffffffffff1663a9059cbb33836040518363ffffffff167c0100000000000000000000000000000000000000000000000000000000028152600401808373ffffffffffffffffffffffffffffffffffffffff1673ffffffffffffffffffffffffffffffffffffffff16815260200182815260200192505050602060405180830381600087803b158015611f3757600080fd5b505af1158015611f4b573d6000803e3d6000fd5b505050506040513d6020811015611f6157600080fd5b810190808051906020019092919050505050611f888160875461211990919063ffffffff16565b608781905550611fdf836000803373ffffffffffffffffffffffffffffffffffffffff1673ffffffffffffffffffffffffffffffffffffffff1681526020019081526020016000205461211990919063ffffffff16565b6000803373ffffffffffffffffffffffffffffffffffffffff1673ffffffffffffffffffffffffffffffffffffffff168152602001908152602001600020819055506120368360015461211990919063ffffffff16565b6001819055507f210405eb88ac7589aa9de0a6e36b9c9d3cd6e4061b74363d250a77afe3c6efb78382604051808381526020018281526020019250505060405180910390a16001915050919050565b608560009054906101000a900473ffffffffffffffffffffffffffffffffffffffff1673ffffffffffffffffffffffffffffffffffffffff163373ffffffffffffffffffffffffffffffffffffffff161415156120e157600080fd5b6120ea816121f9565b50565b608660009054906101000a900473ffffffffffffffffffffffffffffffffffffffff1681565b60895481565b600082821115151561212757fe5b818303905092915050565b6000818301905082811015151561214557fe5b80905092915050565b6000808314156121615760009050612180565b818302905081838281151561217257fe5b0414151561217c57fe5b8090505b92915050565b6000818381151561219357fe5b04905092915050565b6000806000808463ffffffff168663ffffffff166121ba8a8a6122f5565b028115156121c457fe5b0491506121d08261245c565b90506121e981607f0360ff16839060020a90048261251c565b8193509350505094509492505050565b600073ffffffffffffffffffffffffffffffffffffffff168173ffffffffffffffffffffffffffffffffffffffff161415151561223557600080fd5b8073ffffffffffffffffffffffffffffffffffffffff16608560009054906101000a900473ffffffffffffffffffffffffffffffffffffffff1673ffffffffffffffffffffffffffffffffffffffff167f8be0079c531659141344cd1fd0a4f28419497f9722a3daafe3b4186f6b6457e060405160405180910390a380608560006101000a81548173ffffffffffffffffffffffffffffffffffffffff021916908373ffffffffffffffffffffffffffffffffffffffff16021790555050565b60008060008060007001ffffffffffffffffffffffffffffffff871115151561231a57fe5b60009350856f80000000000000000000000000000000880281151561233b57fe5b049250700100000000000000000000000000000000831015156123a45761237c6f800000000000000000000000000000008481151561237657fe5b04612940565b91508160ff16839060020a900492506f800000000000000000000000000000008260ff160293505b6f8000000000000000000000000000000083111561243257607f90505b60008160ff161115612431576f800000000000000000000000000000008384028115156123ea57fe5b04925070010000000000000000000000000000000083101515612425576001839060020a900492506001810360ff1660019060020a02840193505b806001900390506123c1565b5b607a60ff166f02c5c85fdf473de6af278ece600fcbda85029060020a900494505050505092915050565b60008060008060209250607f91505b8160ff166001840160ff1610156124bd57600282840160ff1681151561248d57fe5b0490508460048260ff166080811015156124a357fe5b01541015156124b4578092506124b8565b8091505b61246b565b8460048360ff166080811015156124d057fe5b01541015156124e157819350612514565b8460048460ff166080811015156124f457fe5b015410151561250557829350612514565b6000151561250f57fe5b600093505b505050919050565b6000806000849150600090508360ff168583029060020a900491506f03442c4e6074a82f1797f72ac00000008202810190508360ff168583029060020a900491506f0116b96f757c380fb287fd0e400000008202810190508360ff168583029060020a900491506e45ae5bdd5f0e03eca1ff43900000008202810190508360ff168583029060020a900491506e0defabf91302cd95b9ffda500000008202810190508360ff168583029060020a900491506e02529ca9832b22439efff9b80000008202810190508360ff168583029060020a900491506d54f1cf12bd04e516b6da880000008202810190508360ff168583029060020a900491506d0a9e39e257a09ca2d6db510000008202810190508360ff168583029060020a900491506d012e066e7b839fa050c3090000008202810190508360ff168583029060020a900491506c1e33d7d926c329a1ad1a8000008202810190508360ff168583029060020a900491506c02bee513bdb4a6b19b5f8000008202810190508360ff168583029060020a900491506b3a9316fa79b88eccf2a000008202810190508360ff168583029060020a900491506b048177ebe1fa8123752000008202810190508360ff168583029060020a900491506a5263fe90242dcbacf000008202810190508360ff168583029060020a900491506a057e22099c030d941000008202810190508360ff168583029060020a900491506957e22099c030d94100008202810190508360ff168583029060020a9004915069052b6b545699763100008202810190508360ff168583029060020a90049150684985f67696bf7480008202810190508360ff168583029060020a900491506803dea12ea99e4980008202810190508360ff168583029060020a900491506731880f2214b6e0008202810190508360ff168583029060020a9004915067025bcff56eb360008202810190508360ff168583029060020a90049150661b722e10ab10008202810190508360ff168583029060020a900491506601317c700770008202810190508360ff168583029060020a90049150650cba84aafa008202810190508360ff168583029060020a900491506482573a0a008202810190508360ff168583029060020a900491506405035ad9008202810190508360ff168583029060020a90049150632f881b008202810190508360ff168583029060020a900491506301b293408202810190508360ff168583029060020a90049150620efc408202810190508360ff168583029060020a90049150617fe08202810190508360ff168583029060020a900491506104208202810190508360ff168583029060020a9004915060218202810190508360ff168583029060020a9004915060018202810190508360ff1660019060020a02856f0688589cc0e9505e2f2fee55800000008381151561293357fe5b0401019250505092915050565b6000806000806000925084915061010082101561297c575b6001821115612977576001829060020a90049150600183019250612958565b6129c7565b608090505b60008160ff1611156129c6578060ff1660019060020a02821015156129b3578060ff16829060020a9004915080831792505b60018160ff169060020a90049050612981565b5b8293505050509190505600a165627a7a72305820276e55909024250c9988166a49319a7eaea05c35757aef85e04ca67e7c06858e0029a165627a7a7230582027fb27f202b98e04efcbce5f0f089b7b0b4bd47dc9d106cec36b4510af01870d0029",
  "source": "pragma solidity ^0.4.24;\n\nimport \"zos-lib/contracts/migrations/Initializable.sol\";\n\nimport \"./tokens/GeneratorToken.sol\";\nimport \"./GeneratorRegistry.sol\";\n\ncontract Generator is Initializable {\n  GeneratorRegistry public registry;\n  string public name;\n  address public creator;\n  string public sourceUri;\n  GeneratorToken public token;\n\n  function initialize(\n    GeneratorRegistry _registry,\n    string _name,\n    address _creator,\n    string _sourceUri\n  ) isInitializer public {\n    name = _name;\n    registry = _registry;\n    creator = _creator;\n    sourceUri = _sourceUri;\n\n    token = new GeneratorToken(name, \"\", 18, registry.getToken(), 666666, 20000000000);\n    registry.fireRegistryEvent(\"constructed\");\n  }\n\n  function getGenerator() public view returns (string, address, string, address) {\n    return (\n      name,\n      creator,\n      sourceUri,\n      token\n    );\n  }\n}\n",
  "sourcePath": "/Users/tarrence/code/crypto/ethberlin/contracts/Generator.sol",
  "compiler": {
    "name": "solc",
    "version": "0.4.24+commit.e67f0147.Emscripten.clang"
  },
  "schemaVersion": "2.0.1",
  "updatedAt": "2018-09-08T13:24:20.862Z"
}