{
  "contractName": "SoulToken",
  "abi": [
    {
      "constant": true,
      "inputs": [],
      "name": "name",
      "outputs": [
        {
          "name": "",
          "type": "string"
        }
      ],
      "payable": false,
      "stateMutability": "view",
      "type": "function"
    },
    {
      "constant": false,
      "inputs": [
        {
          "name": "_spender",
          "type": "address"
        },
        {
          "name": "_value",
          "type": "uint256"
        }
      ],
      "name": "approve",
      "outputs": [
        {
          "name": "",
          "type": "bool"
        }
      ],
      "payable": false,
      "stateMutability": "nonpayable",
      "type": "function"
    },
    {
      "constant": true,
      "inputs": [],
      "name": "reserveRatio",
      "outputs": [
        {
          "name": "",
          "type": "uint32"
        }
      ],
      "payable": false,
      "stateMutability": "view",
      "type": "function"
    },
    {
      "constant": true,
      "inputs": [],
      "name": "totalSupply",
      "outputs": [
        {
          "name": "",
          "type": "uint256"
        }
      ],
      "payable": false,
      "stateMutability": "view",
      "type": "function"
    },
    {
      "constant": false,
      "inputs": [
        {
          "name": "_from",
          "type": "address"
        },
        {
          "name": "_to",
          "type": "address"
        },
        {
          "name": "_value",
          "type": "uint256"
        }
      ],
      "name": "transferFrom",
      "outputs": [
        {
          "name": "",
          "type": "bool"
        }
      ],
      "payable": false,
      "stateMutability": "nonpayable",
      "type": "function"
    },
    {
      "constant": true,
      "inputs": [
        {
          "name": "_supply",
          "type": "uint256"
        },
        {
          "name": "_connectorBalance",
          "type": "uint256"
        },
        {
          "name": "_connectorWeight",
          "type": "uint32"
        },
        {
          "name": "_depositAmount",
          "type": "uint256"
        }
      ],
      "name": "calculatePurchaseReturn",
      "outputs": [
        {
          "name": "",
          "type": "uint256"
        }
      ],
      "payable": false,
      "stateMutability": "view",
      "type": "function"
    },
    {
      "constant": true,
      "inputs": [],
      "name": "decimals",
      "outputs": [
        {
          "name": "",
          "type": "uint8"
        }
      ],
      "payable": false,
      "stateMutability": "view",
      "type": "function"
    },
    {
      "constant": true,
      "inputs": [
        {
          "name": "_supply",
          "type": "uint256"
        },
        {
          "name": "_connectorBalance",
          "type": "uint256"
        },
        {
          "name": "_connectorWeight",
          "type": "uint32"
        },
        {
          "name": "_sellAmount",
          "type": "uint256"
        }
      ],
      "name": "calculateSaleReturn",
      "outputs": [
        {
          "name": "",
          "type": "uint256"
        }
      ],
      "payable": false,
      "stateMutability": "view",
      "type": "function"
    },
    {
      "constant": true,
      "inputs": [],
      "name": "version",
      "outputs": [
        {
          "name": "",
          "type": "string"
        }
      ],
      "payable": false,
      "stateMutability": "view",
      "type": "function"
    },
    {
      "constant": false,
      "inputs": [
        {
          "name": "_spender",
          "type": "address"
        },
        {
          "name": "_subtractedValue",
          "type": "uint256"
        }
      ],
      "name": "decreaseApproval",
      "outputs": [
        {
          "name": "",
          "type": "bool"
        }
      ],
      "payable": false,
      "stateMutability": "nonpayable",
      "type": "function"
    },
    {
      "constant": true,
      "inputs": [
        {
          "name": "_owner",
          "type": "address"
        }
      ],
      "name": "balanceOf",
      "outputs": [
        {
          "name": "",
          "type": "uint256"
        }
      ],
      "payable": false,
      "stateMutability": "view",
      "type": "function"
    },
    {
      "constant": false,
      "inputs": [],
      "name": "renounceOwnership",
      "outputs": [],
      "payable": false,
      "stateMutability": "nonpayable",
      "type": "function"
    },
    {
      "constant": true,
      "inputs": [],
      "name": "owner",
      "outputs": [
        {
          "name": "",
          "type": "address"
        }
      ],
      "payable": false,
      "stateMutability": "view",
      "type": "function"
    },
    {
      "constant": true,
      "inputs": [],
      "name": "symbol",
      "outputs": [
        {
          "name": "",
          "type": "string"
        }
      ],
      "payable": false,
      "stateMutability": "view",
      "type": "function"
    },
    {
      "constant": true,
      "inputs": [],
      "name": "poolBalance",
      "outputs": [
        {
          "name": "",
          "type": "uint256"
        }
      ],
      "payable": false,
      "stateMutability": "view",
      "type": "function"
    },
    {
      "constant": false,
      "inputs": [],
      "name": "buy",
      "outputs": [
        {
          "name": "",
          "type": "bool"
        }
      ],
      "payable": true,
      "stateMutability": "payable",
      "type": "function"
    },
    {
      "constant": false,
      "inputs": [
        {
          "name": "_to",
          "type": "address"
        },
        {
          "name": "_value",
          "type": "uint256"
        }
      ],
      "name": "transfer",
      "outputs": [
        {
          "name": "",
          "type": "bool"
        }
      ],
      "payable": false,
      "stateMutability": "nonpayable",
      "type": "function"
    },
    {
      "constant": false,
      "inputs": [
        {
          "name": "_gasPrice",
          "type": "uint256"
        }
      ],
      "name": "setGasPrice",
      "outputs": [],
      "payable": false,
      "stateMutability": "nonpayable",
      "type": "function"
    },
    {
      "constant": false,
      "inputs": [
        {
          "name": "_spender",
          "type": "address"
        },
        {
          "name": "_addedValue",
          "type": "uint256"
        }
      ],
      "name": "increaseApproval",
      "outputs": [
        {
          "name": "",
          "type": "bool"
        }
      ],
      "payable": false,
      "stateMutability": "nonpayable",
      "type": "function"
    },
    {
      "constant": true,
      "inputs": [
        {
          "name": "_owner",
          "type": "address"
        },
        {
          "name": "_spender",
          "type": "address"
        }
      ],
      "name": "allowance",
      "outputs": [
        {
          "name": "",
          "type": "uint256"
        }
      ],
      "payable": false,
      "stateMutability": "view",
      "type": "function"
    },
    {
      "constant": false,
      "inputs": [
        {
          "name": "sellAmount",
          "type": "uint256"
        }
      ],
      "name": "sell",
      "outputs": [
        {
          "name": "",
          "type": "bool"
        }
      ],
      "payable": false,
      "stateMutability": "nonpayable",
      "type": "function"
    },
    {
      "constant": false,
      "inputs": [
        {
          "name": "_newOwner",
          "type": "address"
        }
      ],
      "name": "transferOwnership",
      "outputs": [],
      "payable": false,
      "stateMutability": "nonpayable",
      "type": "function"
    },
    {
      "constant": true,
      "inputs": [],
      "name": "gasPrice",
      "outputs": [
        {
          "name": "",
          "type": "uint256"
        }
      ],
      "payable": false,
      "stateMutability": "view",
      "type": "function"
    },
    {
      "inputs": [
        {
          "name": "_reserveRatio",
          "type": "uint32"
        },
        {
          "name": "_gasPrice",
          "type": "uint256"
        }
      ],
      "payable": false,
      "stateMutability": "nonpayable",
      "type": "constructor"
    },
    {
      "payable": true,
      "stateMutability": "payable",
      "type": "fallback"
    },
    {
      "anonymous": false,
      "inputs": [
        {
          "indexed": false,
          "name": "amountMinted",
          "type": "uint256"
        },
        {
          "indexed": false,
          "name": "totalCost",
          "type": "uint256"
        }
      ],
      "name": "LogMint",
      "type": "event"
    },
    {
      "anonymous": false,
      "inputs": [
        {
          "indexed": false,
          "name": "amountWithdrawn",
          "type": "uint256"
        },
        {
          "indexed": false,
          "name": "reward",
          "type": "uint256"
        }
      ],
      "name": "LogWithdraw",
      "type": "event"
    },
    {
      "anonymous": false,
      "inputs": [
        {
          "indexed": false,
          "name": "logString",
          "type": "string"
        },
        {
          "indexed": false,
          "name": "value",
          "type": "uint256"
        }
      ],
      "name": "LogBondingCurve",
      "type": "event"
    },
    {
      "anonymous": false,
      "inputs": [
        {
          "indexed": true,
          "name": "previousOwner",
          "type": "address"
        }
      ],
      "name": "OwnershipRenounced",
      "type": "event"
    },
    {
      "anonymous": false,
      "inputs": [
        {
          "indexed": true,
          "name": "previousOwner",
          "type": "address"
        },
        {
          "indexed": true,
          "name": "newOwner",
          "type": "address"
        }
      ],
      "name": "OwnershipTransferred",
      "type": "event"
    },
    {
      "anonymous": false,
      "inputs": [
        {
          "indexed": true,
          "name": "owner",
          "type": "address"
        },
        {
          "indexed": true,
          "name": "spender",
          "type": "address"
        },
        {
          "indexed": false,
          "name": "value",
          "type": "uint256"
        }
      ],
      "name": "Approval",
      "type": "event"
    },
    {
      "anonymous": false,
      "inputs": [
        {
          "indexed": true,
          "name": "from",
          "type": "address"
        },
        {
          "indexed": true,
          "name": "to",
          "type": "address"
        },
        {
          "indexed": false,
          "name": "value",
          "type": "uint256"
        }
      ],
      "name": "Transfer",
      "type": "event"
    }
  ],
  "bytecode": "0x60806040526040805190810160405280600381526020017f302e330000000000000000000000000000000000000000000000000000000000815250600390805190602001906200005192919062001041565b506040805190810160405280600381526020017f302e330000000000000000000000000000000000000000000000000000000000815250608490805190602001906200009f92919062001041565b506000608855348015620000b257600080fd5b50604051604080620037958339810180604052810190808051906020019092919080519060200190929190505050701c35fedd14ffffffffffffffffffffffff600460206080811015156200010357fe5b0181905550701b0ce43b323fffffffffffffffffffffff600460216080811015156200012b57fe5b01819055507019f0028ec1ffffffffffffffffffffffff600460226080811015156200015357fe5b01819055507018ded91f0e7fffffffffffffffffffffff600460236080811015156200017b57fe5b01819055507017d8ec7f0417ffffffffffffffffffffff60046024608081101515620001a357fe5b01819055507016ddc6556cdbffffffffffffffffffffff60046025608081101515620001cb57fe5b01819055507015ecf52776a1ffffffffffffffffffffff60046026608081101515620001f357fe5b01819055507015060c256cb2ffffffffffffffffffffff600460276080811015156200021b57fe5b0181905550701428a2f98d72ffffffffffffffffffffff600460286080811015156200024357fe5b01819055507013545598e5c23fffffffffffffffffffff600460296080811015156200026b57fe5b0181905550701288c4161ce1dfffffffffffffffffffff6004602a6080811015156200029357fe5b01819055507011c592761c666fffffffffffffffffffff6004602b608081101515620002bb57fe5b018190555070110a688680a757ffffffffffffffffffff6004602c608081101515620002e357fe5b0181905550701056f1b5bedf77ffffffffffffffffffff6004602d6080811015156200030b57fe5b0181905550700faadceceeff8bffffffffffffffffffff6004602e6080811015156200033357fe5b0181905550700f05dc6b27edadffffffffffffffffffff6004602f6080811015156200035b57fe5b0181905550700e67a5a25da4107fffffffffffffffffff600460306080811015156200038357fe5b0181905550700dcff115b14eedffffffffffffffffffff60046031608081101515620003ab57fe5b0181905550700d3e7a392431239fffffffffffffffffff60046032608081101515620003d357fe5b0181905550700cb2ff529eb71e4fffffffffffffffffff60046033608081101515620003fb57fe5b0181905550700c2d415c3db974afffffffffffffffffff600460346080811015156200042357fe5b0181905550700bad03e7d883f69bffffffffffffffffff600460356080811015156200044b57fe5b0181905550700b320d03b2c343d5ffffffffffffffffff600460366080811015156200047357fe5b0181905550700abc25204e02828dffffffffffffffffff600460376080811015156200049b57fe5b0181905550700a4b16f74ee4bb207fffffffffffffffff60046038608081101515620004c357fe5b01819055507009deaf736ac1f569ffffffffffffffffff60046039608081101515620004eb57fe5b0181905550700976bd9952c7aa957fffffffffffffffff6004603a6080811015156200051357fe5b01819055507009131271922eaa606fffffffffffffffff6004603b6080811015156200053b57fe5b01819055507008b380f3558668c46fffffffffffffffff6004603c6080811015156200056357fe5b0181905550700857ddf0117efa215bffffffffffffffff6004603d6080811015156200058b57fe5b01819055507007ffffffffffffffffffffffffffffffff6004603e608081101515620005b357fe5b01819055507007abbf6f6abb9d087fffffffffffffffff6004603f608081101515620005db57fe5b018190555070075af62cbac95f7dfa7fffffffffffffff600460406080811015156200060357fe5b018190555070070d7fb7452e187ac13fffffffffffffff600460416080811015156200062b57fe5b01819055507006c3390ecc8af379295fffffffffffffff600460426080811015156200065357fe5b018190555070067c00a3b07ffc01fd6fffffffffffffff600460436080811015156200067b57fe5b0181905550700637b647c39cbb9d3d27ffffffffffffff60046044608081101515620006a357fe5b01819055507005f63b1fc104dbd39587ffffffffffffff60046045608081101515620006cb57fe5b01819055507005b771955b36e12f7235ffffffffffffff60046046608081101515620006f357fe5b018190555070057b3d49dda84556d6f6ffffffffffffff600460476080811015156200071b57fe5b018190555070054183095b2c8ececf30ffffffffffffff600460486080811015156200074357fe5b018190555070050a28be635ca2b888f77fffffffffffff600460496080811015156200076b57fe5b01819055507004d5156639708c9db33c3fffffffffffff6004604a6080811015156200079357fe5b01819055507004a23105873875bd52dfdfffffffffffff6004604b608081101515620007bb57fe5b0181905550700471649d87199aa990756fffffffffffff6004604c608081101515620007e357fe5b01819055507004429a21a029d4c1457cfbffffffffffff6004604d6080811015156200080b57fe5b0181905550700415bc6d6fb7dd71af2cb3ffffffffffff6004604e6080811015156200083357fe5b01819055507003eab73b3bbfe282243ce1ffffffffffff6004604f6080811015156200085b57fe5b01819055507003c1771ac9fb6b4c18e229ffffffffffff600460506080811015156200088357fe5b0181905550700399e96897690418f785257fffffffffff60046051608081101515620008ab57fe5b0181905550700373fc456c53bb779bf0ea9fffffffffff60046052608081101515620008d357fe5b018190555070034f9e8e490c48e67e6ab8bfffffffffff60046053608081101515620008fb57fe5b018190555070032cbfd4a7adc790560b3337ffffffffff600460546080811015156200092357fe5b018190555070030b50570f6e5d2acca94613ffffffffff600460556080811015156200094b57fe5b01819055507002eb40f9f620fda6b56c2861ffffffffff600460566080811015156200097357fe5b01819055507002cc8340ecb0d0f520a6af58ffffffffff600460576080811015156200099b57fe5b01819055507002af09481380a0a35cf1ba02ffffffffff60046058608081101515620009c357fe5b0181905550700292c5bdd3b92ec810287b1b3fffffffff60046059608081101515620009eb57fe5b0181905550700277abdcdab07d5a77ac6d6b9fffffffff6004605a60808110151562000a1357fe5b018190555070025daf6654b1eaa55fd64df5efffffffff6004605b60808110151562000a3b57fe5b0181905550700244c49c648baa98192dce88b7ffffffff6004605c60808110151562000a6357fe5b018190555070022ce03cd5619a311b2471268bffffffff6004605d60808110151562000a8b57fe5b0181905550700215f77c045fbe885654a44a0fffffffff6004605e60808110151562000ab357fe5b01819055507001ffffffffffffffffffffffffffffffff6004605f60808110151562000adb57fe5b01819055507001eaefdbdaaee7421fc4d3ede5ffffffff6004606060808110151562000b0357fe5b01819055507001d6bd8b2eb257df7e8ca57b09bfffffff6004606160808110151562000b2b57fe5b01819055507001c35fedd14b861eb0443f7f133fffffff6004606260808110151562000b5357fe5b01819055507001b0ce43b322bcde4a56e8ada5afffffff6004606360808110151562000b7b57fe5b018190555070019f0028ec1fff007f5a195a39dfffffff6004606460808110151562000ba357fe5b018190555070018ded91f0e72ee74f49b15ba527ffffff6004606560808110151562000bcb57fe5b018190555070017d8ec7f04136f4e5615fd41a63ffffff6004606660808110151562000bf357fe5b018190555070016ddc6556cdb84bdc8d12d22e6fffffff6004606760808110151562000c1b57fe5b018190555070015ecf52776a1155b5bd8395814f7fffff6004606860808110151562000c4357fe5b018190555070015060c256cb23b3b3cc3754cf40ffffff6004606960808110151562000c6b57fe5b01819055507001428a2f98d728ae223ddab715be3fffff6004606a60808110151562000c9357fe5b018190555070013545598e5c23276ccf0ede68034fffff6004606b60808110151562000cbb57fe5b01819055507001288c4161ce1d6f54b7f61081194fffff6004606c60808110151562000ce357fe5b018190555070011c592761c666aa641d5a01a40f17ffff6004606d60808110151562000d0b57fe5b0181905550700110a688680a7530515f3e6e6cfdcdffff6004606e60808110151562000d3357fe5b01819055507001056f1b5bedf75c6bcb2ce8aed428ffff6004606f60808110151562000d5b57fe5b01819055506ffaadceceeff8a0890f3875f008277fff6004607060808110151562000d8257fe5b01819055506ff05dc6b27edad306388a600f6ba0bfff6004607160808110151562000da957fe5b01819055506fe67a5a25da41063de1495d5b18cdbfff6004607260808110151562000dd057fe5b01819055506fdcff115b14eedde6fc3aa5353f2e4fff6004607360808110151562000df757fe5b01819055506fd3e7a3924312399f9aae2e0f868f8fff6004607460808110151562000e1e57fe5b01819055506fcb2ff529eb71e41582cccd5a1ee26fff6004607560808110151562000e4557fe5b01819055506fc2d415c3db974ab32a51840c0b67edff6004607660808110151562000e6c57fe5b01819055506fbad03e7d883f69ad5b0a186184e06bff6004607760808110151562000e9357fe5b01819055506fb320d03b2c343d4829abd6075f0cc5ff6004607860808110151562000eba57fe5b01819055506fabc25204e02828d73c6e80bcdb1a95bf6004607960808110151562000ee157fe5b01819055506fa4b16f74ee4bb2040a1ec6c15fbbf2df6004607a60808110151562000f0857fe5b01819055506f9deaf736ac1f569deb1b5ae3f36c130f6004607b60808110151562000f2f57fe5b01819055506f976bd9952c7aa957f5937d790ef650376004607c60808110151562000f5657fe5b01819055506f9131271922eaa6064b73a22d0bd4f2bf6004607d60808110151562000f7d57fe5b01819055506f8b380f3558668c46c91c49a2f8e967b96004607e60808110151562000fa457fe5b01819055506f857ddf0117efa215952912839f6473e66004607f60808110151562000fcb57fe5b018190555033608560006101000a81548173ffffffffffffffffffffffffffffffffffffffff021916908373ffffffffffffffffffffffffffffffffffffffff16021790555081608760006101000a81548163ffffffff021916908363ffffffff160217905550806088819055505050620010f0565b828054600181600116156101000203166002900490600052602060002090601f016020900481019282601f106200108457805160ff1916838001178555620010b5565b82800160010185558215620010b5579182015b82811115620010b457825182559160200191906001019062001097565b5b509050620010c49190620010c8565b5090565b620010ed91905b80821115620010e9576000816000905550600101620010cf565b5090565b90565b61269580620011006000396000f300608060405260043610610133576000357c0100000000000000000000000000000000000000000000000000000000900463ffffffff16806306fdde031461013e578063095ea7b3146101ce5780630c7d5cd81461023357806318160ddd1461026a57806323b872dd1461029557806329a00e7c1461031a578063313ce5671461037f57806349f9b0f7146103b057806354fd4d501461041557806366188463146104a557806370a082311461050a578063715018a6146105615780638da5cb5b1461057857806395d89b41146105cf57806396365d441461065f578063a6f2ae3a1461068a578063a9059cbb146106ac578063bf1fe42014610711578063d73dd6231461073e578063dd62ed3e146107a3578063e4849b321461081a578063f2fde38b1461085f578063fe173b97146108a2575b61013b6108cd565b50005b34801561014a57600080fd5b50610153610a21565b6040518080602001828103825283818151815260200191508051906020019080838360005b83811015610193578082015181840152602081019050610178565b50505050905090810190601f1680156101c05780820380516001836020036101000a031916815260200191505b509250505060405180910390f35b3480156101da57600080fd5b50610219600480360381019080803573ffffffffffffffffffffffffffffffffffffffff16906020019092919080359060200190929190505050610a5a565b604051808215151515815260200191505060405180910390f35b34801561023f57600080fd5b50610248610b4c565b604051808263ffffffff1663ffffffff16815260200191505060405180910390f35b34801561027657600080fd5b5061027f610b62565b6040518082815260200191505060405180910390f35b3480156102a157600080fd5b50610300600480360381019080803573ffffffffffffffffffffffffffffffffffffffff169060200190929190803573ffffffffffffffffffffffffffffffffffffffff16906020019092919080359060200190929190505050610b6c565b604051808215151515815260200191505060405180910390f35b34801561032657600080fd5b506103696004803603810190808035906020019092919080359060200190929190803563ffffffff16906020019092919080359060200190929190505050610f27565b6040518082815260200191505060405180910390f35b34801561038b57600080fd5b50610394611028565b604051808260ff1660ff16815260200191505060405180910390f35b3480156103bc57600080fd5b506103ff6004803603810190808035906020019092919080359060200190929190803563ffffffff1690602001909291908035906020019092919050505061102d565b6040518082815260200191505060405180910390f35b34801561042157600080fd5b5061042a611161565b6040518080602001828103825283818151815260200191508051906020019080838360005b8381101561046a57808201518184015260208101905061044f565b50505050905090810190601f1680156104975780820380516001836020036101000a031916815260200191505b509250505060405180910390f35b3480156104b157600080fd5b506104f0600480360381019080803573ffffffffffffffffffffffffffffffffffffffff169060200190929190803590602001909291905050506111ff565b604051808215151515815260200191505060405180910390f35b34801561051657600080fd5b5061054b600480360381019080803573ffffffffffffffffffffffffffffffffffffffff169060200190929190505050611491565b6040518082815260200191505060405180910390f35b34801561056d57600080fd5b506105766114d9565b005b34801561058457600080fd5b5061058d6115de565b604051808273ffffffffffffffffffffffffffffffffffffffff1673ffffffffffffffffffffffffffffffffffffffff16815260200191505060405180910390f35b3480156105db57600080fd5b506105e4611604565b6040518080602001828103825283818151815260200191508051906020019080838360005b83811015610624578082015181840152602081019050610609565b50505050905090810190601f1680156106515780820380516001836020036101000a031916815260200191505b509250505060405180910390f35b34801561066b57600080fd5b5061067461163d565b6040518082815260200191505060405180910390f35b6106926108cd565b604051808215151515815260200191505060405180910390f35b3480156106b857600080fd5b506106f7600480360381019080803573ffffffffffffffffffffffffffffffffffffffff16906020019092919080359060200190929190505050611643565b604051808215151515815260200191505060405180910390f35b34801561071d57600080fd5b5061073c60048036038101908080359060200190929190505050611863565b005b34801561074a57600080fd5b50610789600480360381019080803573ffffffffffffffffffffffffffffffffffffffff169060200190929190803590602001909291905050506118d8565b604051808215151515815260200191505060405180910390f35b3480156107af57600080fd5b50610804600480360381019080803573ffffffffffffffffffffffffffffffffffffffff169060200190929190803573ffffffffffffffffffffffffffffffffffffffff169060200190929190505050611ad4565b6040518082815260200191505060405180910390f35b34801561082657600080fd5b5061084560048036038101908080359060200190929190505050611b5b565b604051808215151515815260200191505060405180910390f35b34801561086b57600080fd5b506108a0600480360381019080803573ffffffffffffffffffffffffffffffffffffffff169060200190929190505050611d42565b005b3480156108ae57600080fd5b506108b7611daa565b6040518082815260200191505060405180910390f35b6000806088543a111515156108de57fe5b6000341115156108ed57600080fd5b61090f600154608654608760009054906101000a900463ffffffff1634610f27565b905061092681600154611db090919063ffffffff16565b60018190555061097d816000803373ffffffffffffffffffffffffffffffffffffffff1673ffffffffffffffffffffffffffffffffffffffff16815260200190815260200160002054611db090919063ffffffff16565b6000803373ffffffffffffffffffffffffffffffffffffffff1673ffffffffffffffffffffffffffffffffffffffff168152602001908152602001600020819055506109d434608654611db090919063ffffffff16565b6086819055507fe7360c0fa1984a85874443100f5b25dd4f84192659660eb199f6c96e11defbcb8134604051808381526020018281526020019250505060405180910390a1600191505090565b6040805190810160405280600981526020017f536f756c546f6b656e000000000000000000000000000000000000000000000081525081565b600081600260003373ffffffffffffffffffffffffffffffffffffffff1673ffffffffffffffffffffffffffffffffffffffff16815260200190815260200160002060008573ffffffffffffffffffffffffffffffffffffffff1673ffffffffffffffffffffffffffffffffffffffff168152602001908152602001600020819055508273ffffffffffffffffffffffffffffffffffffffff163373ffffffffffffffffffffffffffffffffffffffff167f8c5be1e5ebec7d5bd14f71427d1e84f3dd0314c0f7b2291e5b200ac8c7c3b925846040518082815260200191505060405180910390a36001905092915050565b608760009054906101000a900463ffffffff1681565b6000600154905090565b60008060008573ffffffffffffffffffffffffffffffffffffffff1673ffffffffffffffffffffffffffffffffffffffff168152602001908152602001600020548211151515610bbb57600080fd5b600260008573ffffffffffffffffffffffffffffffffffffffff1673ffffffffffffffffffffffffffffffffffffffff16815260200190815260200160002060003373ffffffffffffffffffffffffffffffffffffffff1673ffffffffffffffffffffffffffffffffffffffff168152602001908152602001600020548211151515610c4657600080fd5b600073ffffffffffffffffffffffffffffffffffffffff168373ffffffffffffffffffffffffffffffffffffffff1614151515610c8257600080fd5b610cd3826000808773ffffffffffffffffffffffffffffffffffffffff1673ffffffffffffffffffffffffffffffffffffffff16815260200190815260200160002054611dcc90919063ffffffff16565b6000808673ffffffffffffffffffffffffffffffffffffffff1673ffffffffffffffffffffffffffffffffffffffff16815260200190815260200160002081905550610d66826000808673ffffffffffffffffffffffffffffffffffffffff1673ffffffffffffffffffffffffffffffffffffffff16815260200190815260200160002054611db090919063ffffffff16565b6000808573ffffffffffffffffffffffffffffffffffffffff1673ffffffffffffffffffffffffffffffffffffffff16815260200190815260200160002081905550610e3782600260008773ffffffffffffffffffffffffffffffffffffffff1673ffffffffffffffffffffffffffffffffffffffff16815260200190815260200160002060003373ffffffffffffffffffffffffffffffffffffffff1673ffffffffffffffffffffffffffffffffffffffff16815260200190815260200160002054611dcc90919063ffffffff16565b600260008673ffffffffffffffffffffffffffffffffffffffff1673ffffffffffffffffffffffffffffffffffffffff16815260200190815260200160002060003373ffffffffffffffffffffffffffffffffffffffff1673ffffffffffffffffffffffffffffffffffffffff168152602001908152602001600020819055508273ffffffffffffffffffffffffffffffffffffffff168473ffffffffffffffffffffffffffffffffffffffff167fddf252ad1be2c89b69c2b068fc378daa952ba7f163c4a11628f55a4df523b3ef846040518082815260200191505060405180910390a3600190509392505050565b60008060008060008089118015610f3e5750600088115b8015610f50575060008763ffffffff16115b8015610f6b5750620f424063ffffffff168763ffffffff1611155b1515610f7657600080fd5b6000861415610f88576000945061101c565b620f424063ffffffff168763ffffffff161415610fcb57610fc488610fb6888c611de590919063ffffffff16565b611e1d90919063ffffffff16565b945061101c565b610fde8887611db090919063ffffffff16565b9150610fef828989620f4240611e33565b80945081955050508260ff1661100e858b611de590919063ffffffff16565b9060020a9004905088810394505b50505050949350505050565b601281565b60008060008060008060008a1180156110465750600089115b8015611058575060008863ffffffff16115b80156110735750620f424063ffffffff168863ffffffff1611155b801561107f5750898711155b151561108a57600080fd5b600087141561109c5760009550611154565b898714156110ac57889550611154565b620f424063ffffffff168863ffffffff1614156110ef576110e88a6110da898c611de590919063ffffffff16565b611e1d90919063ffffffff16565b9550611154565b868a0392506111038a84620f42408b611e33565b809550819650505061111e858a611de590919063ffffffff16565b91508360ff16899060020a029050611151856111438385611dcc90919063ffffffff16565b611e1d90919063ffffffff16565b95505b5050505050949350505050565b60848054600181600116156101000203166002900480601f0160208091040260200160405190810160405280929190818152602001828054600181600116156101000203166002900480156111f75780601f106111cc576101008083540402835291602001916111f7565b820191906000526020600020905b8154815290600101906020018083116111da57829003601f168201915b505050505081565b600080600260003373ffffffffffffffffffffffffffffffffffffffff1673ffffffffffffffffffffffffffffffffffffffff16815260200190815260200160002060008573ffffffffffffffffffffffffffffffffffffffff1673ffffffffffffffffffffffffffffffffffffffff1681526020019081526020016000205490508083101515611311576000600260003373ffffffffffffffffffffffffffffffffffffffff1673ffffffffffffffffffffffffffffffffffffffff16815260200190815260200160002060008673ffffffffffffffffffffffffffffffffffffffff1673ffffffffffffffffffffffffffffffffffffffff168152602001908152602001600020819055506113a5565b6113248382611dcc90919063ffffffff16565b600260003373ffffffffffffffffffffffffffffffffffffffff1673ffffffffffffffffffffffffffffffffffffffff16815260200190815260200160002060008673ffffffffffffffffffffffffffffffffffffffff1673ffffffffffffffffffffffffffffffffffffffff168152602001908152602001600020819055505b8373ffffffffffffffffffffffffffffffffffffffff163373ffffffffffffffffffffffffffffffffffffffff167f8c5be1e5ebec7d5bd14f71427d1e84f3dd0314c0f7b2291e5b200ac8c7c3b925600260003373ffffffffffffffffffffffffffffffffffffffff1673ffffffffffffffffffffffffffffffffffffffff16815260200190815260200160002060008873ffffffffffffffffffffffffffffffffffffffff1673ffffffffffffffffffffffffffffffffffffffff168152602001908152602001600020546040518082815260200191505060405180910390a3600191505092915050565b60008060008373ffffffffffffffffffffffffffffffffffffffff1673ffffffffffffffffffffffffffffffffffffffff168152602001908152602001600020549050919050565b608560009054906101000a900473ffffffffffffffffffffffffffffffffffffffff1673ffffffffffffffffffffffffffffffffffffffff163373ffffffffffffffffffffffffffffffffffffffff1614151561153557600080fd5b608560009054906101000a900473ffffffffffffffffffffffffffffffffffffffff1673ffffffffffffffffffffffffffffffffffffffff167ff8df31144d9c2f0f6b59d69b8b98abd5459d07f2742c4df920b25aae33c6482060405160405180910390a26000608560006101000a81548173ffffffffffffffffffffffffffffffffffffffff021916908373ffffffffffffffffffffffffffffffffffffffff160217905550565b608560009054906101000a900473ffffffffffffffffffffffffffffffffffffffff1681565b6040805190810160405280600381526020017f534f4c000000000000000000000000000000000000000000000000000000000081525081565b60865481565b60008060003373ffffffffffffffffffffffffffffffffffffffff1673ffffffffffffffffffffffffffffffffffffffff16815260200190815260200160002054821115151561169257600080fd5b600073ffffffffffffffffffffffffffffffffffffffff168373ffffffffffffffffffffffffffffffffffffffff16141515156116ce57600080fd5b61171f826000803373ffffffffffffffffffffffffffffffffffffffff1673ffffffffffffffffffffffffffffffffffffffff16815260200190815260200160002054611dcc90919063ffffffff16565b6000803373ffffffffffffffffffffffffffffffffffffffff1673ffffffffffffffffffffffffffffffffffffffff168152602001908152602001600020819055506117b2826000808673ffffffffffffffffffffffffffffffffffffffff1673ffffffffffffffffffffffffffffffffffffffff16815260200190815260200160002054611db090919063ffffffff16565b6000808573ffffffffffffffffffffffffffffffffffffffff1673ffffffffffffffffffffffffffffffffffffffff168152602001908152602001600020819055508273ffffffffffffffffffffffffffffffffffffffff163373ffffffffffffffffffffffffffffffffffffffff167fddf252ad1be2c89b69c2b068fc378daa952ba7f163c4a11628f55a4df523b3ef846040518082815260200191505060405180910390a36001905092915050565b608560009054906101000a900473ffffffffffffffffffffffffffffffffffffffff1673ffffffffffffffffffffffffffffffffffffffff163373ffffffffffffffffffffffffffffffffffffffff161415156118bf57600080fd5b6000811115156118ce57600080fd5b8060888190555050565b600061196982600260003373ffffffffffffffffffffffffffffffffffffffff1673ffffffffffffffffffffffffffffffffffffffff16815260200190815260200160002060008673ffffffffffffffffffffffffffffffffffffffff1673ffffffffffffffffffffffffffffffffffffffff16815260200190815260200160002054611db090919063ffffffff16565b600260003373ffffffffffffffffffffffffffffffffffffffff1673ffffffffffffffffffffffffffffffffffffffff16815260200190815260200160002060008573ffffffffffffffffffffffffffffffffffffffff1673ffffffffffffffffffffffffffffffffffffffff168152602001908152602001600020819055508273ffffffffffffffffffffffffffffffffffffffff163373ffffffffffffffffffffffffffffffffffffffff167f8c5be1e5ebec7d5bd14f71427d1e84f3dd0314c0f7b2291e5b200ac8c7c3b925600260003373ffffffffffffffffffffffffffffffffffffffff1673ffffffffffffffffffffffffffffffffffffffff16815260200190815260200160002060008773ffffffffffffffffffffffffffffffffffffffff1673ffffffffffffffffffffffffffffffffffffffff168152602001908152602001600020546040518082815260200191505060405180910390a36001905092915050565b6000600260008473ffffffffffffffffffffffffffffffffffffffff1673ffffffffffffffffffffffffffffffffffffffff16815260200190815260200160002060008373ffffffffffffffffffffffffffffffffffffffff1673ffffffffffffffffffffffffffffffffffffffff16815260200190815260200160002054905092915050565b6000806088543a11151515611b6c57fe5b600083118015611bba5750826000803373ffffffffffffffffffffffffffffffffffffffff1673ffffffffffffffffffffffffffffffffffffffff1681526020019081526020016000205410155b1515611bc557600080fd5b611be7600154608654608760009054906101000a900463ffffffff168661102d565b90503373ffffffffffffffffffffffffffffffffffffffff166108fc829081150290604051600060405180830381858888f19350505050158015611c2f573d6000803e3d6000fd5b50611c4581608654611dcc90919063ffffffff16565b608681905550611c9c836000803373ffffffffffffffffffffffffffffffffffffffff1673ffffffffffffffffffffffffffffffffffffffff16815260200190815260200160002054611dcc90919063ffffffff16565b6000803373ffffffffffffffffffffffffffffffffffffffff1673ffffffffffffffffffffffffffffffffffffffff16815260200190815260200160002081905550611cf383600154611dcc90919063ffffffff16565b6001819055507f210405eb88ac7589aa9de0a6e36b9c9d3cd6e4061b74363d250a77afe3c6efb78382604051808381526020018281526020019250505060405180910390a16001915050919050565b608560009054906101000a900473ffffffffffffffffffffffffffffffffffffffff1673ffffffffffffffffffffffffffffffffffffffff163373ffffffffffffffffffffffffffffffffffffffff16141515611d9e57600080fd5b611da781611e90565b50565b60885481565b60008183019050828110151515611dc357fe5b80905092915050565b6000828211151515611dda57fe5b818303905092915050565b600080831415611df85760009050611e17565b8183029050818382811515611e0957fe5b04141515611e1357fe5b8090505b92915050565b60008183811515611e2a57fe5b04905092915050565b6000806000808463ffffffff168663ffffffff16611e518a8a611f8c565b02811515611e5b57fe5b049150611e67826120f3565b9050611e8081607f0360ff16839060020a9004826121b3565b8193509350505094509492505050565b600073ffffffffffffffffffffffffffffffffffffffff168173ffffffffffffffffffffffffffffffffffffffff1614151515611ecc57600080fd5b8073ffffffffffffffffffffffffffffffffffffffff16608560009054906101000a900473ffffffffffffffffffffffffffffffffffffffff1673ffffffffffffffffffffffffffffffffffffffff167f8be0079c531659141344cd1fd0a4f28419497f9722a3daafe3b4186f6b6457e060405160405180910390a380608560006101000a81548173ffffffffffffffffffffffffffffffffffffffff021916908373ffffffffffffffffffffffffffffffffffffffff16021790555050565b60008060008060007001ffffffffffffffffffffffffffffffff8711151515611fb157fe5b60009350856f800000000000000000000000000000008802811515611fd257fe5b0492507001000000000000000000000000000000008310151561203b576120136f800000000000000000000000000000008481151561200d57fe5b046125d7565b91508160ff16839060020a900492506f800000000000000000000000000000008260ff160293505b6f800000000000000000000000000000008311156120c957607f90505b60008160ff1611156120c8576f8000000000000000000000000000000083840281151561208157fe5b049250700100000000000000000000000000000000831015156120bc576001839060020a900492506001810360ff1660019060020a02840193505b80600190039050612058565b5b607a60ff166f02c5c85fdf473de6af278ece600fcbda85029060020a900494505050505092915050565b60008060008060209250607f91505b8160ff166001840160ff16101561215457600282840160ff1681151561212457fe5b0490508460048260ff1660808110151561213a57fe5b015410151561214b5780925061214f565b8091505b612102565b8460048360ff1660808110151561216757fe5b0154101515612178578193506121ab565b8460048460ff1660808110151561218b57fe5b015410151561219c578293506121ab565b600015156121a657fe5b600093505b505050919050565b6000806000849150600090508360ff168583029060020a900491506f03442c4e6074a82f1797f72ac00000008202810190508360ff168583029060020a900491506f0116b96f757c380fb287fd0e400000008202810190508360ff168583029060020a900491506e45ae5bdd5f0e03eca1ff43900000008202810190508360ff168583029060020a900491506e0defabf91302cd95b9ffda500000008202810190508360ff168583029060020a900491506e02529ca9832b22439efff9b80000008202810190508360ff168583029060020a900491506d54f1cf12bd04e516b6da880000008202810190508360ff168583029060020a900491506d0a9e39e257a09ca2d6db510000008202810190508360ff168583029060020a900491506d012e066e7b839fa050c3090000008202810190508360ff168583029060020a900491506c1e33d7d926c329a1ad1a8000008202810190508360ff168583029060020a900491506c02bee513bdb4a6b19b5f8000008202810190508360ff168583029060020a900491506b3a9316fa79b88eccf2a000008202810190508360ff168583029060020a900491506b048177ebe1fa8123752000008202810190508360ff168583029060020a900491506a5263fe90242dcbacf000008202810190508360ff168583029060020a900491506a057e22099c030d941000008202810190508360ff168583029060020a900491506957e22099c030d94100008202810190508360ff168583029060020a9004915069052b6b545699763100008202810190508360ff168583029060020a90049150684985f67696bf7480008202810190508360ff168583029060020a900491506803dea12ea99e4980008202810190508360ff168583029060020a900491506731880f2214b6e0008202810190508360ff168583029060020a9004915067025bcff56eb360008202810190508360ff168583029060020a90049150661b722e10ab10008202810190508360ff168583029060020a900491506601317c700770008202810190508360ff168583029060020a90049150650cba84aafa008202810190508360ff168583029060020a900491506482573a0a008202810190508360ff168583029060020a900491506405035ad9008202810190508360ff168583029060020a90049150632f881b008202810190508360ff168583029060020a900491506301b293408202810190508360ff168583029060020a90049150620efc408202810190508360ff168583029060020a90049150617fe08202810190508360ff168583029060020a900491506104208202810190508360ff168583029060020a9004915060218202810190508360ff168583029060020a9004915060018202810190508360ff1660019060020a02856f0688589cc0e9505e2f2fee5580000000838115156125ca57fe5b0401019250505092915050565b60008060008060009250849150610100821015612613575b600182111561260e576001829060020a900491506001830192506125ef565b61265e565b608090505b60008160ff16111561265d578060ff1660019060020a028210151561264a578060ff16829060020a9004915080831792505b60018160ff169060020a90049050612618565b5b8293505050509190505600a165627a7a72305820e842c69862f3c93b3d5b75b80e3fd716d9a87663c2e9e4fb506c3dfe67bdcdc40029",
  "source": "pragma solidity ^0.4.24;\n\nimport \"./EthBondingCurve.sol\";\n\ncontract SoulToken is EthBondingCurve {\n  string public constant name = \"SoulToken\";\n  string public constant symbol = \"SOL\";\n  uint8 public constant decimals = 18;\n\n  constructor(uint32 _reserveRatio, uint256 _gasPrice) public {\n    reserveRatio = _reserveRatio;\n    gasPrice = _gasPrice;\n  }\n}\n",
  "sourcePath": "/Users/iain/hk/ethberlin/contracts/tokens/SoulToken.sol",
  "compiler": {
    "name": "solc",
    "version": "0.4.24+commit.e67f0147.Emscripten.clang"
  },
  "schemaVersion": "2.0.1",
  "updatedAt": "2018-09-08T16:07:07.252Z"
}