{
  "contractName": "SoulToken",
  "abi": [
    {
      "constant": true,
      "inputs": [],
      "name": "name",
      "outputs": [
        {
          "name": "",
          "type": "string"
        }
      ],
      "payable": false,
      "stateMutability": "view",
      "type": "function"
    },
    {
      "constant": false,
      "inputs": [
        {
          "name": "_spender",
          "type": "address"
        },
        {
          "name": "_value",
          "type": "uint256"
        }
      ],
      "name": "approve",
      "outputs": [
        {
          "name": "",
          "type": "bool"
        }
      ],
      "payable": false,
      "stateMutability": "nonpayable",
      "type": "function"
    },
    {
      "constant": true,
      "inputs": [],
      "name": "reserveRatio",
      "outputs": [
        {
          "name": "",
          "type": "uint32"
        }
      ],
      "payable": false,
      "stateMutability": "view",
      "type": "function"
    },
    {
      "constant": true,
      "inputs": [],
      "name": "totalSupply",
      "outputs": [
        {
          "name": "",
          "type": "uint256"
        }
      ],
      "payable": false,
      "stateMutability": "view",
      "type": "function"
    },
    {
      "constant": false,
      "inputs": [
        {
          "name": "_from",
          "type": "address"
        },
        {
          "name": "_to",
          "type": "address"
        },
        {
          "name": "_value",
          "type": "uint256"
        }
      ],
      "name": "transferFrom",
      "outputs": [
        {
          "name": "",
          "type": "bool"
        }
      ],
      "payable": false,
      "stateMutability": "nonpayable",
      "type": "function"
    },
    {
      "constant": true,
      "inputs": [],
      "name": "INITAL_BALANCE",
      "outputs": [
        {
          "name": "",
          "type": "uint256"
        }
      ],
      "payable": false,
      "stateMutability": "view",
      "type": "function"
    },
    {
      "constant": true,
      "inputs": [
        {
          "name": "_supply",
          "type": "uint256"
        },
        {
          "name": "_connectorBalance",
          "type": "uint256"
        },
        {
          "name": "_connectorWeight",
          "type": "uint32"
        },
        {
          "name": "_depositAmount",
          "type": "uint256"
        }
      ],
      "name": "calculatePurchaseReturn",
      "outputs": [
        {
          "name": "",
          "type": "uint256"
        }
      ],
      "payable": false,
      "stateMutability": "view",
      "type": "function"
    },
    {
      "constant": true,
      "inputs": [],
      "name": "INITIAL_SUPPLY",
      "outputs": [
        {
          "name": "",
          "type": "uint256"
        }
      ],
      "payable": false,
      "stateMutability": "view",
      "type": "function"
    },
    {
      "constant": true,
      "inputs": [],
      "name": "decimals",
      "outputs": [
        {
          "name": "",
          "type": "uint8"
        }
      ],
      "payable": false,
      "stateMutability": "view",
      "type": "function"
    },
    {
      "constant": true,
      "inputs": [
        {
          "name": "_supply",
          "type": "uint256"
        },
        {
          "name": "_connectorBalance",
          "type": "uint256"
        },
        {
          "name": "_connectorWeight",
          "type": "uint32"
        },
        {
          "name": "_sellAmount",
          "type": "uint256"
        }
      ],
      "name": "calculateSaleReturn",
      "outputs": [
        {
          "name": "",
          "type": "uint256"
        }
      ],
      "payable": false,
      "stateMutability": "view",
      "type": "function"
    },
    {
      "constant": true,
      "inputs": [],
      "name": "version",
      "outputs": [
        {
          "name": "",
          "type": "string"
        }
      ],
      "payable": false,
      "stateMutability": "view",
      "type": "function"
    },
    {
      "constant": false,
      "inputs": [
        {
          "name": "_spender",
          "type": "address"
        },
        {
          "name": "_subtractedValue",
          "type": "uint256"
        }
      ],
      "name": "decreaseApproval",
      "outputs": [
        {
          "name": "",
          "type": "bool"
        }
      ],
      "payable": false,
      "stateMutability": "nonpayable",
      "type": "function"
    },
    {
      "constant": true,
      "inputs": [
        {
          "name": "_owner",
          "type": "address"
        }
      ],
      "name": "balanceOf",
      "outputs": [
        {
          "name": "",
          "type": "uint256"
        }
      ],
      "payable": false,
      "stateMutability": "view",
      "type": "function"
    },
    {
      "constant": false,
      "inputs": [],
      "name": "renounceOwnership",
      "outputs": [],
      "payable": false,
      "stateMutability": "nonpayable",
      "type": "function"
    },
    {
      "constant": true,
      "inputs": [],
      "name": "INITIAL_PRICE",
      "outputs": [
        {
          "name": "",
          "type": "uint256"
        }
      ],
      "payable": false,
      "stateMutability": "view",
      "type": "function"
    },
    {
      "constant": true,
      "inputs": [],
      "name": "owner",
      "outputs": [
        {
          "name": "",
          "type": "address"
        }
      ],
      "payable": false,
      "stateMutability": "view",
      "type": "function"
    },
    {
      "constant": true,
      "inputs": [],
      "name": "symbol",
      "outputs": [
        {
          "name": "",
          "type": "string"
        }
      ],
      "payable": false,
      "stateMutability": "view",
      "type": "function"
    },
    {
      "constant": true,
      "inputs": [],
      "name": "poolBalance",
      "outputs": [
        {
          "name": "",
          "type": "uint256"
        }
      ],
      "payable": false,
      "stateMutability": "view",
      "type": "function"
    },
    {
      "constant": false,
      "inputs": [],
      "name": "buy",
      "outputs": [
        {
          "name": "",
          "type": "bool"
        }
      ],
      "payable": true,
      "stateMutability": "payable",
      "type": "function"
    },
    {
      "constant": false,
      "inputs": [
        {
          "name": "_to",
          "type": "address"
        },
        {
          "name": "_value",
          "type": "uint256"
        }
      ],
      "name": "transfer",
      "outputs": [
        {
          "name": "",
          "type": "bool"
        }
      ],
      "payable": false,
      "stateMutability": "nonpayable",
      "type": "function"
    },
    {
      "constant": true,
      "inputs": [],
      "name": "CURVE_RATIO",
      "outputs": [
        {
          "name": "",
          "type": "uint32"
        }
      ],
      "payable": false,
      "stateMutability": "view",
      "type": "function"
    },
    {
      "constant": false,
      "inputs": [
        {
          "name": "_gasPrice",
          "type": "uint256"
        }
      ],
      "name": "setGasPrice",
      "outputs": [],
      "payable": false,
      "stateMutability": "nonpayable",
      "type": "function"
    },
    {
      "constant": false,
      "inputs": [
        {
          "name": "_spender",
          "type": "address"
        },
        {
          "name": "_addedValue",
          "type": "uint256"
        }
      ],
      "name": "increaseApproval",
      "outputs": [
        {
          "name": "",
          "type": "bool"
        }
      ],
      "payable": false,
      "stateMutability": "nonpayable",
      "type": "function"
    },
    {
      "constant": true,
      "inputs": [
        {
          "name": "_owner",
          "type": "address"
        },
        {
          "name": "_spender",
          "type": "address"
        }
      ],
      "name": "allowance",
      "outputs": [
        {
          "name": "",
          "type": "uint256"
        }
      ],
      "payable": false,
      "stateMutability": "view",
      "type": "function"
    },
    {
      "constant": false,
      "inputs": [
        {
          "name": "sellAmount",
          "type": "uint256"
        }
      ],
      "name": "sell",
      "outputs": [
        {
          "name": "",
          "type": "bool"
        }
      ],
      "payable": false,
      "stateMutability": "nonpayable",
      "type": "function"
    },
    {
      "constant": false,
      "inputs": [
        {
          "name": "_newOwner",
          "type": "address"
        }
      ],
      "name": "transferOwnership",
      "outputs": [],
      "payable": false,
      "stateMutability": "nonpayable",
      "type": "function"
    },
    {
      "constant": true,
      "inputs": [],
      "name": "gasPrice",
      "outputs": [
        {
          "name": "",
          "type": "uint256"
        }
      ],
      "payable": false,
      "stateMutability": "view",
      "type": "function"
    },
    {
      "inputs": [],
      "payable": false,
      "stateMutability": "nonpayable",
      "type": "constructor"
    },
    {
      "payable": true,
      "stateMutability": "payable",
      "type": "fallback"
    },
    {
      "anonymous": false,
      "inputs": [
        {
          "indexed": false,
          "name": "sender",
          "type": "address"
        },
        {
          "indexed": false,
          "name": "amountMinted",
          "type": "uint256"
        },
        {
          "indexed": false,
          "name": "totalCost",
          "type": "uint256"
        }
      ],
      "name": "LogMint",
      "type": "event"
    },
    {
      "anonymous": false,
      "inputs": [
        {
          "indexed": false,
          "name": "sender",
          "type": "address"
        },
        {
          "indexed": false,
          "name": "amountWithdrawn",
          "type": "uint256"
        },
        {
          "indexed": false,
          "name": "reward",
          "type": "uint256"
        }
      ],
      "name": "LogWithdraw",
      "type": "event"
    },
    {
      "anonymous": false,
      "inputs": [
        {
          "indexed": false,
          "name": "sender",
          "type": "address"
        },
        {
          "indexed": false,
          "name": "logString",
          "type": "string"
        },
        {
          "indexed": false,
          "name": "value",
          "type": "uint256"
        }
      ],
      "name": "LogBondingCurve",
      "type": "event"
    },
    {
      "anonymous": false,
      "inputs": [
        {
          "indexed": true,
          "name": "previousOwner",
          "type": "address"
        }
      ],
      "name": "OwnershipRenounced",
      "type": "event"
    },
    {
      "anonymous": false,
      "inputs": [
        {
          "indexed": true,
          "name": "previousOwner",
          "type": "address"
        },
        {
          "indexed": true,
          "name": "newOwner",
          "type": "address"
        }
      ],
      "name": "OwnershipTransferred",
      "type": "event"
    },
    {
      "anonymous": false,
      "inputs": [
        {
          "indexed": true,
          "name": "owner",
          "type": "address"
        },
        {
          "indexed": true,
          "name": "spender",
          "type": "address"
        },
        {
          "indexed": false,
          "name": "value",
          "type": "uint256"
        }
      ],
      "name": "Approval",
      "type": "event"
    },
    {
      "anonymous": false,
      "inputs": [
        {
          "indexed": true,
          "name": "from",
          "type": "address"
        },
        {
          "indexed": true,
          "name": "to",
          "type": "address"
        },
        {
          "indexed": false,
          "name": "value",
          "type": "uint256"
        }
      ],
      "name": "Transfer",
      "type": "event"
    }
  ],
  "bytecode": "0x60806040526040805190810160405280600381526020017f302e330000000000000000000000000000000000000000000000000000000000815250600390805190602001906200005192919062001068565b506040805190810160405280600381526020017f302e330000000000000000000000000000000000000000000000000000000000815250608490805190602001906200009f92919062001068565b506000608855348015620000b257600080fd5b50701c35fedd14ffffffffffffffffffffffff60046020608081101515620000d657fe5b0181905550701b0ce43b323fffffffffffffffffffffff60046021608081101515620000fe57fe5b01819055507019f0028ec1ffffffffffffffffffffffff600460226080811015156200012657fe5b01819055507018ded91f0e7fffffffffffffffffffffff600460236080811015156200014e57fe5b01819055507017d8ec7f0417ffffffffffffffffffffff600460246080811015156200017657fe5b01819055507016ddc6556cdbffffffffffffffffffffff600460256080811015156200019e57fe5b01819055507015ecf52776a1ffffffffffffffffffffff60046026608081101515620001c657fe5b01819055507015060c256cb2ffffffffffffffffffffff60046027608081101515620001ee57fe5b0181905550701428a2f98d72ffffffffffffffffffffff600460286080811015156200021657fe5b01819055507013545598e5c23fffffffffffffffffffff600460296080811015156200023e57fe5b0181905550701288c4161ce1dfffffffffffffffffffff6004602a6080811015156200026657fe5b01819055507011c592761c666fffffffffffffffffffff6004602b6080811015156200028e57fe5b018190555070110a688680a757ffffffffffffffffffff6004602c608081101515620002b657fe5b0181905550701056f1b5bedf77ffffffffffffffffffff6004602d608081101515620002de57fe5b0181905550700faadceceeff8bffffffffffffffffffff6004602e6080811015156200030657fe5b0181905550700f05dc6b27edadffffffffffffffffffff6004602f6080811015156200032e57fe5b0181905550700e67a5a25da4107fffffffffffffffffff600460306080811015156200035657fe5b0181905550700dcff115b14eedffffffffffffffffffff600460316080811015156200037e57fe5b0181905550700d3e7a392431239fffffffffffffffffff60046032608081101515620003a657fe5b0181905550700cb2ff529eb71e4fffffffffffffffffff60046033608081101515620003ce57fe5b0181905550700c2d415c3db974afffffffffffffffffff60046034608081101515620003f657fe5b0181905550700bad03e7d883f69bffffffffffffffffff600460356080811015156200041e57fe5b0181905550700b320d03b2c343d5ffffffffffffffffff600460366080811015156200044657fe5b0181905550700abc25204e02828dffffffffffffffffff600460376080811015156200046e57fe5b0181905550700a4b16f74ee4bb207fffffffffffffffff600460386080811015156200049657fe5b01819055507009deaf736ac1f569ffffffffffffffffff60046039608081101515620004be57fe5b0181905550700976bd9952c7aa957fffffffffffffffff6004603a608081101515620004e657fe5b01819055507009131271922eaa606fffffffffffffffff6004603b6080811015156200050e57fe5b01819055507008b380f3558668c46fffffffffffffffff6004603c6080811015156200053657fe5b0181905550700857ddf0117efa215bffffffffffffffff6004603d6080811015156200055e57fe5b01819055507007ffffffffffffffffffffffffffffffff6004603e6080811015156200058657fe5b01819055507007abbf6f6abb9d087fffffffffffffffff6004603f608081101515620005ae57fe5b018190555070075af62cbac95f7dfa7fffffffffffffff60046040608081101515620005d657fe5b018190555070070d7fb7452e187ac13fffffffffffffff60046041608081101515620005fe57fe5b01819055507006c3390ecc8af379295fffffffffffffff600460426080811015156200062657fe5b018190555070067c00a3b07ffc01fd6fffffffffffffff600460436080811015156200064e57fe5b0181905550700637b647c39cbb9d3d27ffffffffffffff600460446080811015156200067657fe5b01819055507005f63b1fc104dbd39587ffffffffffffff600460456080811015156200069e57fe5b01819055507005b771955b36e12f7235ffffffffffffff60046046608081101515620006c657fe5b018190555070057b3d49dda84556d6f6ffffffffffffff60046047608081101515620006ee57fe5b018190555070054183095b2c8ececf30ffffffffffffff600460486080811015156200071657fe5b018190555070050a28be635ca2b888f77fffffffffffff600460496080811015156200073e57fe5b01819055507004d5156639708c9db33c3fffffffffffff6004604a6080811015156200076657fe5b01819055507004a23105873875bd52dfdfffffffffffff6004604b6080811015156200078e57fe5b0181905550700471649d87199aa990756fffffffffffff6004604c608081101515620007b657fe5b01819055507004429a21a029d4c1457cfbffffffffffff6004604d608081101515620007de57fe5b0181905550700415bc6d6fb7dd71af2cb3ffffffffffff6004604e6080811015156200080657fe5b01819055507003eab73b3bbfe282243ce1ffffffffffff6004604f6080811015156200082e57fe5b01819055507003c1771ac9fb6b4c18e229ffffffffffff600460506080811015156200085657fe5b0181905550700399e96897690418f785257fffffffffff600460516080811015156200087e57fe5b0181905550700373fc456c53bb779bf0ea9fffffffffff60046052608081101515620008a657fe5b018190555070034f9e8e490c48e67e6ab8bfffffffffff60046053608081101515620008ce57fe5b018190555070032cbfd4a7adc790560b3337ffffffffff60046054608081101515620008f657fe5b018190555070030b50570f6e5d2acca94613ffffffffff600460556080811015156200091e57fe5b01819055507002eb40f9f620fda6b56c2861ffffffffff600460566080811015156200094657fe5b01819055507002cc8340ecb0d0f520a6af58ffffffffff600460576080811015156200096e57fe5b01819055507002af09481380a0a35cf1ba02ffffffffff600460586080811015156200099657fe5b0181905550700292c5bdd3b92ec810287b1b3fffffffff60046059608081101515620009be57fe5b0181905550700277abdcdab07d5a77ac6d6b9fffffffff6004605a608081101515620009e657fe5b018190555070025daf6654b1eaa55fd64df5efffffffff6004605b60808110151562000a0e57fe5b0181905550700244c49c648baa98192dce88b7ffffffff6004605c60808110151562000a3657fe5b018190555070022ce03cd5619a311b2471268bffffffff6004605d60808110151562000a5e57fe5b0181905550700215f77c045fbe885654a44a0fffffffff6004605e60808110151562000a8657fe5b01819055507001ffffffffffffffffffffffffffffffff6004605f60808110151562000aae57fe5b01819055507001eaefdbdaaee7421fc4d3ede5ffffffff6004606060808110151562000ad657fe5b01819055507001d6bd8b2eb257df7e8ca57b09bfffffff6004606160808110151562000afe57fe5b01819055507001c35fedd14b861eb0443f7f133fffffff6004606260808110151562000b2657fe5b01819055507001b0ce43b322bcde4a56e8ada5afffffff6004606360808110151562000b4e57fe5b018190555070019f0028ec1fff007f5a195a39dfffffff6004606460808110151562000b7657fe5b018190555070018ded91f0e72ee74f49b15ba527ffffff6004606560808110151562000b9e57fe5b018190555070017d8ec7f04136f4e5615fd41a63ffffff6004606660808110151562000bc657fe5b018190555070016ddc6556cdb84bdc8d12d22e6fffffff6004606760808110151562000bee57fe5b018190555070015ecf52776a1155b5bd8395814f7fffff6004606860808110151562000c1657fe5b018190555070015060c256cb23b3b3cc3754cf40ffffff6004606960808110151562000c3e57fe5b01819055507001428a2f98d728ae223ddab715be3fffff6004606a60808110151562000c6657fe5b018190555070013545598e5c23276ccf0ede68034fffff6004606b60808110151562000c8e57fe5b01819055507001288c4161ce1d6f54b7f61081194fffff6004606c60808110151562000cb657fe5b018190555070011c592761c666aa641d5a01a40f17ffff6004606d60808110151562000cde57fe5b0181905550700110a688680a7530515f3e6e6cfdcdffff6004606e60808110151562000d0657fe5b01819055507001056f1b5bedf75c6bcb2ce8aed428ffff6004606f60808110151562000d2e57fe5b01819055506ffaadceceeff8a0890f3875f008277fff6004607060808110151562000d5557fe5b01819055506ff05dc6b27edad306388a600f6ba0bfff6004607160808110151562000d7c57fe5b01819055506fe67a5a25da41063de1495d5b18cdbfff6004607260808110151562000da357fe5b01819055506fdcff115b14eedde6fc3aa5353f2e4fff6004607360808110151562000dca57fe5b01819055506fd3e7a3924312399f9aae2e0f868f8fff6004607460808110151562000df157fe5b01819055506fcb2ff529eb71e41582cccd5a1ee26fff6004607560808110151562000e1857fe5b01819055506fc2d415c3db974ab32a51840c0b67edff6004607660808110151562000e3f57fe5b01819055506fbad03e7d883f69ad5b0a186184e06bff6004607760808110151562000e6657fe5b01819055506fb320d03b2c343d4829abd6075f0cc5ff6004607860808110151562000e8d57fe5b01819055506fabc25204e02828d73c6e80bcdb1a95bf6004607960808110151562000eb457fe5b01819055506fa4b16f74ee4bb2040a1ec6c15fbbf2df6004607a60808110151562000edb57fe5b01819055506f9deaf736ac1f569deb1b5ae3f36c130f6004607b60808110151562000f0257fe5b01819055506f976bd9952c7aa957f5937d790ef650376004607c60808110151562000f2957fe5b01819055506f9131271922eaa6064b73a22d0bd4f2bf6004607d60808110151562000f5057fe5b01819055506f8b380f3558668c46c91c49a2f8e967b96004607e60808110151562000f7757fe5b01819055506f857ddf0117efa215952912839f6473e66004607f60808110151562000f9e57fe5b018190555033608560006101000a81548173ffffffffffffffffffffffffffffffffffffffff021916908373ffffffffffffffffffffffffffffffffffffffff160217905550620249f0608760006101000a81548163ffffffff021916908363ffffffff1602179055506a01a784379d99db4200000060018190555069d3c21bcecceda1000000660162b3f37660006a01a784379d99db42000000620249f063ffffffff1602028115156200104f57fe5b0460868190555064060db8840060888190555062001117565b828054600181600116156101000203166002900490600052602060002090601f016020900481019282601f10620010ab57805160ff1916838001178555620010dc565b82800160010185558215620010dc579182015b82811115620010db578251825591602001919060010190620010be565b5b509050620010eb9190620010ef565b5090565b6200111491905b8082111562001110576000816000905550600101620010f6565b5090565b90565b61283a80620011276000396000f30060806040526004361061015f576000357c0100000000000000000000000000000000000000000000000000000000900463ffffffff16806306fdde031461016a578063095ea7b3146101fa5780630c7d5cd81461025f57806318160ddd1461029657806323b872dd146102c1578063269e35921461034657806329a00e7c146103715780632ff2e9dc146103d6578063313ce5671461040157806349f9b0f71461043257806354fd4d5014610497578063661884631461052757806370a082311461058c578063715018a6146105e35780637c5e2795146105fa5780638da5cb5b1461062557806395d89b411461067c57806396365d441461070c578063a6f2ae3a14610737578063a9059cbb14610759578063b1741fb2146107be578063bf1fe420146107f5578063d73dd62314610822578063dd62ed3e14610887578063e4849b32146108fe578063f2fde38b14610943578063fe173b9714610986575b6101676109b1565b50005b34801561017657600080fd5b5061017f610b39565b6040518080602001828103825283818151815260200191508051906020019080838360005b838110156101bf5780820151818401526020810190506101a4565b50505050905090810190601f1680156101ec5780820380516001836020036101000a031916815260200191505b509250505060405180910390f35b34801561020657600080fd5b50610245600480360381019080803573ffffffffffffffffffffffffffffffffffffffff16906020019092919080359060200190929190505050610b72565b604051808215151515815260200191505060405180910390f35b34801561026b57600080fd5b50610274610c64565b604051808263ffffffff1663ffffffff16815260200191505060405180910390f35b3480156102a257600080fd5b506102ab610c7a565b6040518082815260200191505060405180910390f35b3480156102cd57600080fd5b5061032c600480360381019080803573ffffffffffffffffffffffffffffffffffffffff169060200190929190803573ffffffffffffffffffffffffffffffffffffffff16906020019092919080359060200190929190505050610c84565b604051808215151515815260200191505060405180910390f35b34801561035257600080fd5b5061035b61103f565b6040518082815260200191505060405180910390f35b34801561037d57600080fd5b506103c06004803603810190808035906020019092919080359060200190929190803563ffffffff16906020019092919080359060200190929190505050611077565b6040518082815260200191505060405180910390f35b3480156103e257600080fd5b506103eb611178565b6040518082815260200191505060405180910390f35b34801561040d57600080fd5b50610416611187565b604051808260ff1660ff16815260200191505060405180910390f35b34801561043e57600080fd5b506104816004803603810190808035906020019092919080359060200190929190803563ffffffff1690602001909291908035906020019092919050505061118c565b6040518082815260200191505060405180910390f35b3480156104a357600080fd5b506104ac6112c0565b6040518080602001828103825283818151815260200191508051906020019080838360005b838110156104ec5780820151818401526020810190506104d1565b50505050905090810190601f1680156105195780820380516001836020036101000a031916815260200191505b509250505060405180910390f35b34801561053357600080fd5b50610572600480360381019080803573ffffffffffffffffffffffffffffffffffffffff1690602001909291908035906020019092919050505061135e565b604051808215151515815260200191505060405180910390f35b34801561059857600080fd5b506105cd600480360381019080803573ffffffffffffffffffffffffffffffffffffffff1690602001909291905050506115f0565b6040518082815260200191505060405180910390f35b3480156105ef57600080fd5b506105f8611638565b005b34801561060657600080fd5b5061060f61173d565b6040518082815260200191505060405180910390f35b34801561063157600080fd5b5061063a611748565b604051808273ffffffffffffffffffffffffffffffffffffffff1673ffffffffffffffffffffffffffffffffffffffff16815260200191505060405180910390f35b34801561068857600080fd5b5061069161176e565b6040518080602001828103825283818151815260200191508051906020019080838360005b838110156106d15780820151818401526020810190506106b6565b50505050905090810190601f1680156106fe5780820380516001836020036101000a031916815260200191505b509250505060405180910390f35b34801561071857600080fd5b506107216117a7565b6040518082815260200191505060405180910390f35b61073f6109b1565b604051808215151515815260200191505060405180910390f35b34801561076557600080fd5b506107a4600480360381019080803573ffffffffffffffffffffffffffffffffffffffff169060200190929190803590602001909291905050506117ad565b604051808215151515815260200191505060405180910390f35b3480156107ca57600080fd5b506107d36119cd565b604051808263ffffffff1663ffffffff16815260200191505060405180910390f35b34801561080157600080fd5b50610820600480360381019080803590602001909291905050506119d4565b005b34801561082e57600080fd5b5061086d600480360381019080803573ffffffffffffffffffffffffffffffffffffffff16906020019092919080359060200190929190505050611a49565b604051808215151515815260200191505060405180910390f35b34801561089357600080fd5b506108e8600480360381019080803573ffffffffffffffffffffffffffffffffffffffff169060200190929190803573ffffffffffffffffffffffffffffffffffffffff169060200190929190505050611c45565b6040518082815260200191505060405180910390f35b34801561090a57600080fd5b5061092960048036038101908080359060200190929190505050611ccc565b604051808215151515815260200191505060405180910390f35b34801561094f57600080fd5b50610984600480360381019080803573ffffffffffffffffffffffffffffffffffffffff169060200190929190505050611ee7565b005b34801561099257600080fd5b5061099b611f4f565b6040518082815260200191505060405180910390f35b6000806088543a111515156109c257fe5b6000341115156109d157600080fd5b6109f3600154608654608760009054906101000a900463ffffffff1634611077565b9050610a0a81600154611f5590919063ffffffff16565b600181905550610a61816000803373ffffffffffffffffffffffffffffffffffffffff1673ffffffffffffffffffffffffffffffffffffffff16815260200190815260200160002054611f5590919063ffffffff16565b6000803373ffffffffffffffffffffffffffffffffffffffff1673ffffffffffffffffffffffffffffffffffffffff16815260200190815260200160002081905550610ab834608654611f5590919063ffffffff16565b6086819055507fa82a7ea15c804d00dba1b969024b510969fde70fac8e0d5da860cf1f7376d317338234604051808473ffffffffffffffffffffffffffffffffffffffff1673ffffffffffffffffffffffffffffffffffffffff168152602001838152602001828152602001935050505060405180910390a1600191505090565b6040805190810160405280600981526020017f536f756c546f6b656e000000000000000000000000000000000000000000000081525081565b600081600260003373ffffffffffffffffffffffffffffffffffffffff1673ffffffffffffffffffffffffffffffffffffffff16815260200190815260200160002060008573ffffffffffffffffffffffffffffffffffffffff1673ffffffffffffffffffffffffffffffffffffffff168152602001908152602001600020819055508273ffffffffffffffffffffffffffffffffffffffff163373ffffffffffffffffffffffffffffffffffffffff167f8c5be1e5ebec7d5bd14f71427d1e84f3dd0314c0f7b2291e5b200ac8c7c3b925846040518082815260200191505060405180910390a36001905092915050565b608760009054906101000a900463ffffffff1681565b6000600154905090565b60008060008573ffffffffffffffffffffffffffffffffffffffff1673ffffffffffffffffffffffffffffffffffffffff168152602001908152602001600020548211151515610cd357600080fd5b600260008573ffffffffffffffffffffffffffffffffffffffff1673ffffffffffffffffffffffffffffffffffffffff16815260200190815260200160002060003373ffffffffffffffffffffffffffffffffffffffff1673ffffffffffffffffffffffffffffffffffffffff168152602001908152602001600020548211151515610d5e57600080fd5b600073ffffffffffffffffffffffffffffffffffffffff168373ffffffffffffffffffffffffffffffffffffffff1614151515610d9a57600080fd5b610deb826000808773ffffffffffffffffffffffffffffffffffffffff1673ffffffffffffffffffffffffffffffffffffffff16815260200190815260200160002054611f7190919063ffffffff16565b6000808673ffffffffffffffffffffffffffffffffffffffff1673ffffffffffffffffffffffffffffffffffffffff16815260200190815260200160002081905550610e7e826000808673ffffffffffffffffffffffffffffffffffffffff1673ffffffffffffffffffffffffffffffffffffffff16815260200190815260200160002054611f5590919063ffffffff16565b6000808573ffffffffffffffffffffffffffffffffffffffff1673ffffffffffffffffffffffffffffffffffffffff16815260200190815260200160002081905550610f4f82600260008773ffffffffffffffffffffffffffffffffffffffff1673ffffffffffffffffffffffffffffffffffffffff16815260200190815260200160002060003373ffffffffffffffffffffffffffffffffffffffff1673ffffffffffffffffffffffffffffffffffffffff16815260200190815260200160002054611f7190919063ffffffff16565b600260008673ffffffffffffffffffffffffffffffffffffffff1673ffffffffffffffffffffffffffffffffffffffff16815260200190815260200160002060003373ffffffffffffffffffffffffffffffffffffffff1673ffffffffffffffffffffffffffffffffffffffff168152602001908152602001600020819055508273ffffffffffffffffffffffffffffffffffffffff168473ffffffffffffffffffffffffffffffffffffffff167fddf252ad1be2c89b69c2b068fc378daa952ba7f163c4a11628f55a4df523b3ef846040518082815260200191505060405180910390a3600190509392505050565b69d3c21bcecceda1000000660162b3f37660006a01a784379d99db42000000620249f063ffffffff16020281151561107357fe5b0481565b6000806000806000808911801561108e5750600088115b80156110a0575060008763ffffffff16115b80156110bb5750620f424063ffffffff168763ffffffff1611155b15156110c657600080fd5b60008614156110d8576000945061116c565b620f424063ffffffff168763ffffffff16141561111b5761111488611106888c611f8a90919063ffffffff16565b611fc290919063ffffffff16565b945061116c565b61112e8887611f5590919063ffffffff16565b915061113f828989620f4240611fd8565b80945081955050508260ff1661115e858b611f8a90919063ffffffff16565b9060020a9004905088810394505b50505050949350505050565b6a01a784379d99db4200000081565b601281565b60008060008060008060008a1180156111a55750600089115b80156111b7575060008863ffffffff16115b80156111d25750620f424063ffffffff168863ffffffff1611155b80156111de5750898711155b15156111e957600080fd5b60008714156111fb57600095506112b3565b8987141561120b578895506112b3565b620f424063ffffffff168863ffffffff16141561124e576112478a611239898c611f8a90919063ffffffff16565b611fc290919063ffffffff16565b95506112b3565b868a0392506112628a84620f42408b611fd8565b809550819650505061127d858a611f8a90919063ffffffff16565b91508360ff16899060020a0290506112b0856112a28385611f7190919063ffffffff16565b611fc290919063ffffffff16565b95505b5050505050949350505050565b60848054600181600116156101000203166002900480601f0160208091040260200160405190810160405280929190818152602001828054600181600116156101000203166002900480156113565780601f1061132b57610100808354040283529160200191611356565b820191906000526020600020905b81548152906001019060200180831161133957829003601f168201915b505050505081565b600080600260003373ffffffffffffffffffffffffffffffffffffffff1673ffffffffffffffffffffffffffffffffffffffff16815260200190815260200160002060008573ffffffffffffffffffffffffffffffffffffffff1673ffffffffffffffffffffffffffffffffffffffff1681526020019081526020016000205490508083101515611470576000600260003373ffffffffffffffffffffffffffffffffffffffff1673ffffffffffffffffffffffffffffffffffffffff16815260200190815260200160002060008673ffffffffffffffffffffffffffffffffffffffff1673ffffffffffffffffffffffffffffffffffffffff16815260200190815260200160002081905550611504565b6114838382611f7190919063ffffffff16565b600260003373ffffffffffffffffffffffffffffffffffffffff1673ffffffffffffffffffffffffffffffffffffffff16815260200190815260200160002060008673ffffffffffffffffffffffffffffffffffffffff1673ffffffffffffffffffffffffffffffffffffffff168152602001908152602001600020819055505b8373ffffffffffffffffffffffffffffffffffffffff163373ffffffffffffffffffffffffffffffffffffffff167f8c5be1e5ebec7d5bd14f71427d1e84f3dd0314c0f7b2291e5b200ac8c7c3b925600260003373ffffffffffffffffffffffffffffffffffffffff1673ffffffffffffffffffffffffffffffffffffffff16815260200190815260200160002060008873ffffffffffffffffffffffffffffffffffffffff1673ffffffffffffffffffffffffffffffffffffffff168152602001908152602001600020546040518082815260200191505060405180910390a3600191505092915050565b60008060008373ffffffffffffffffffffffffffffffffffffffff1673ffffffffffffffffffffffffffffffffffffffff168152602001908152602001600020549050919050565b608560009054906101000a900473ffffffffffffffffffffffffffffffffffffffff1673ffffffffffffffffffffffffffffffffffffffff163373ffffffffffffffffffffffffffffffffffffffff1614151561169457600080fd5b608560009054906101000a900473ffffffffffffffffffffffffffffffffffffffff1673ffffffffffffffffffffffffffffffffffffffff167ff8df31144d9c2f0f6b59d69b8b98abd5459d07f2742c4df920b25aae33c6482060405160405180910390a26000608560006101000a81548173ffffffffffffffffffffffffffffffffffffffff021916908373ffffffffffffffffffffffffffffffffffffffff160217905550565b660162b3f376600081565b608560009054906101000a900473ffffffffffffffffffffffffffffffffffffffff1681565b6040805190810160405280600381526020017f534f4c000000000000000000000000000000000000000000000000000000000081525081565b60865481565b60008060003373ffffffffffffffffffffffffffffffffffffffff1673ffffffffffffffffffffffffffffffffffffffff1681526020019081526020016000205482111515156117fc57600080fd5b600073ffffffffffffffffffffffffffffffffffffffff168373ffffffffffffffffffffffffffffffffffffffff161415151561183857600080fd5b611889826000803373ffffffffffffffffffffffffffffffffffffffff1673ffffffffffffffffffffffffffffffffffffffff16815260200190815260200160002054611f7190919063ffffffff16565b6000803373ffffffffffffffffffffffffffffffffffffffff1673ffffffffffffffffffffffffffffffffffffffff1681526020019081526020016000208190555061191c826000808673ffffffffffffffffffffffffffffffffffffffff1673ffffffffffffffffffffffffffffffffffffffff16815260200190815260200160002054611f5590919063ffffffff16565b6000808573ffffffffffffffffffffffffffffffffffffffff1673ffffffffffffffffffffffffffffffffffffffff168152602001908152602001600020819055508273ffffffffffffffffffffffffffffffffffffffff163373ffffffffffffffffffffffffffffffffffffffff167fddf252ad1be2c89b69c2b068fc378daa952ba7f163c4a11628f55a4df523b3ef846040518082815260200191505060405180910390a36001905092915050565b620249f081565b608560009054906101000a900473ffffffffffffffffffffffffffffffffffffffff1673ffffffffffffffffffffffffffffffffffffffff163373ffffffffffffffffffffffffffffffffffffffff16141515611a3057600080fd5b600081111515611a3f57600080fd5b8060888190555050565b6000611ada82600260003373ffffffffffffffffffffffffffffffffffffffff1673ffffffffffffffffffffffffffffffffffffffff16815260200190815260200160002060008673ffffffffffffffffffffffffffffffffffffffff1673ffffffffffffffffffffffffffffffffffffffff16815260200190815260200160002054611f5590919063ffffffff16565b600260003373ffffffffffffffffffffffffffffffffffffffff1673ffffffffffffffffffffffffffffffffffffffff16815260200190815260200160002060008573ffffffffffffffffffffffffffffffffffffffff1673ffffffffffffffffffffffffffffffffffffffff168152602001908152602001600020819055508273ffffffffffffffffffffffffffffffffffffffff163373ffffffffffffffffffffffffffffffffffffffff167f8c5be1e5ebec7d5bd14f71427d1e84f3dd0314c0f7b2291e5b200ac8c7c3b925600260003373ffffffffffffffffffffffffffffffffffffffff1673ffffffffffffffffffffffffffffffffffffffff16815260200190815260200160002060008773ffffffffffffffffffffffffffffffffffffffff1673ffffffffffffffffffffffffffffffffffffffff168152602001908152602001600020546040518082815260200191505060405180910390a36001905092915050565b6000600260008473ffffffffffffffffffffffffffffffffffffffff1673ffffffffffffffffffffffffffffffffffffffff16815260200190815260200160002060008373ffffffffffffffffffffffffffffffffffffffff1673ffffffffffffffffffffffffffffffffffffffff16815260200190815260200160002054905092915050565b6000806088543a11151515611cdd57fe5b600083118015611d2b5750826000803373ffffffffffffffffffffffffffffffffffffffff1673ffffffffffffffffffffffffffffffffffffffff1681526020019081526020016000205410155b1515611d3657600080fd5b611d58600154608654608760009054906101000a900463ffffffff168661118c565b90503373ffffffffffffffffffffffffffffffffffffffff166108fc829081150290604051600060405180830381858888f19350505050158015611da0573d6000803e3d6000fd5b50611db681608654611f7190919063ffffffff16565b608681905550611e0d836000803373ffffffffffffffffffffffffffffffffffffffff1673ffffffffffffffffffffffffffffffffffffffff16815260200190815260200160002054611f7190919063ffffffff16565b6000803373ffffffffffffffffffffffffffffffffffffffff1673ffffffffffffffffffffffffffffffffffffffff16815260200190815260200160002081905550611e6483600154611f7190919063ffffffff16565b6001819055507fda9a10d7b992511ddadbfc7ff712c1424ce2058bbcdac8c9876d6f8de590d43f338483604051808473ffffffffffffffffffffffffffffffffffffffff1673ffffffffffffffffffffffffffffffffffffffff168152602001838152602001828152602001935050505060405180910390a16001915050919050565b608560009054906101000a900473ffffffffffffffffffffffffffffffffffffffff1673ffffffffffffffffffffffffffffffffffffffff163373ffffffffffffffffffffffffffffffffffffffff16141515611f4357600080fd5b611f4c81612035565b50565b60885481565b60008183019050828110151515611f6857fe5b80905092915050565b6000828211151515611f7f57fe5b818303905092915050565b600080831415611f9d5760009050611fbc565b8183029050818382811515611fae57fe5b04141515611fb857fe5b8090505b92915050565b60008183811515611fcf57fe5b04905092915050565b6000806000808463ffffffff168663ffffffff16611ff68a8a612131565b0281151561200057fe5b04915061200c82612298565b905061202581607f0360ff16839060020a900482612358565b8193509350505094509492505050565b600073ffffffffffffffffffffffffffffffffffffffff168173ffffffffffffffffffffffffffffffffffffffff161415151561207157600080fd5b8073ffffffffffffffffffffffffffffffffffffffff16608560009054906101000a900473ffffffffffffffffffffffffffffffffffffffff1673ffffffffffffffffffffffffffffffffffffffff167f8be0079c531659141344cd1fd0a4f28419497f9722a3daafe3b4186f6b6457e060405160405180910390a380608560006101000a81548173ffffffffffffffffffffffffffffffffffffffff021916908373ffffffffffffffffffffffffffffffffffffffff16021790555050565b60008060008060007001ffffffffffffffffffffffffffffffff871115151561215657fe5b60009350856f80000000000000000000000000000000880281151561217757fe5b049250700100000000000000000000000000000000831015156121e0576121b86f80000000000000000000000000000000848115156121b257fe5b0461277c565b91508160ff16839060020a900492506f800000000000000000000000000000008260ff160293505b6f8000000000000000000000000000000083111561226e57607f90505b60008160ff16111561226d576f8000000000000000000000000000000083840281151561222657fe5b04925070010000000000000000000000000000000083101515612261576001839060020a900492506001810360ff1660019060020a02840193505b806001900390506121fd565b5b607a60ff166f02c5c85fdf473de6af278ece600fcbda85029060020a900494505050505092915050565b60008060008060209250607f91505b8160ff166001840160ff1610156122f957600282840160ff168115156122c957fe5b0490508460048260ff166080811015156122df57fe5b01541015156122f0578092506122f4565b8091505b6122a7565b8460048360ff1660808110151561230c57fe5b015410151561231d57819350612350565b8460048460ff1660808110151561233057fe5b015410151561234157829350612350565b6000151561234b57fe5b600093505b505050919050565b6000806000849150600090508360ff168583029060020a900491506f03442c4e6074a82f1797f72ac00000008202810190508360ff168583029060020a900491506f0116b96f757c380fb287fd0e400000008202810190508360ff168583029060020a900491506e45ae5bdd5f0e03eca1ff43900000008202810190508360ff168583029060020a900491506e0defabf91302cd95b9ffda500000008202810190508360ff168583029060020a900491506e02529ca9832b22439efff9b80000008202810190508360ff168583029060020a900491506d54f1cf12bd04e516b6da880000008202810190508360ff168583029060020a900491506d0a9e39e257a09ca2d6db510000008202810190508360ff168583029060020a900491506d012e066e7b839fa050c3090000008202810190508360ff168583029060020a900491506c1e33d7d926c329a1ad1a8000008202810190508360ff168583029060020a900491506c02bee513bdb4a6b19b5f8000008202810190508360ff168583029060020a900491506b3a9316fa79b88eccf2a000008202810190508360ff168583029060020a900491506b048177ebe1fa8123752000008202810190508360ff168583029060020a900491506a5263fe90242dcbacf000008202810190508360ff168583029060020a900491506a057e22099c030d941000008202810190508360ff168583029060020a900491506957e22099c030d94100008202810190508360ff168583029060020a9004915069052b6b545699763100008202810190508360ff168583029060020a90049150684985f67696bf7480008202810190508360ff168583029060020a900491506803dea12ea99e4980008202810190508360ff168583029060020a900491506731880f2214b6e0008202810190508360ff168583029060020a9004915067025bcff56eb360008202810190508360ff168583029060020a90049150661b722e10ab10008202810190508360ff168583029060020a900491506601317c700770008202810190508360ff168583029060020a90049150650cba84aafa008202810190508360ff168583029060020a900491506482573a0a008202810190508360ff168583029060020a900491506405035ad9008202810190508360ff168583029060020a90049150632f881b008202810190508360ff168583029060020a900491506301b293408202810190508360ff168583029060020a90049150620efc408202810190508360ff168583029060020a90049150617fe08202810190508360ff168583029060020a900491506104208202810190508360ff168583029060020a9004915060218202810190508360ff168583029060020a9004915060018202810190508360ff1660019060020a02856f0688589cc0e9505e2f2fee55800000008381151561276f57fe5b0401019250505092915050565b600080600080600092508491506101008210156127b8575b60018211156127b3576001829060020a90049150600183019250612794565b612803565b608090505b60008160ff161115612802578060ff1660019060020a02821015156127ef578060ff16829060020a9004915080831792505b60018160ff169060020a900490506127bd565b5b8293505050509190505600a165627a7a723058200ac1007916c03c8f9413d65c438ee6c026e9cad400386062cb0cfa56cfd7d5e00029",
  "source": "pragma solidity ^0.4.24;\n\nimport \"./EthBondingCurve.sol\";\n\ncontract SoulToken is EthBondingCurve {\n  string public constant name = \"SoulToken\";\n  string public constant symbol = \"SOL\";\n  uint8 public constant decimals = 18;\n\n  uint256 public constant INITIAL_SUPPLY = 2000000 * (10 ** 18);\n  uint256 public constant INITIAL_PRICE = 39 * (10 ** 13);\n  uint32 public constant CURVE_RATIO = 150000;\n  uint256 public constant INITAL_BALANCE = CURVE_RATIO * INITIAL_SUPPLY * INITIAL_PRICE / (1000000 * 10 ** 18);\n\n  constructor() public {\n    reserveRatio = CURVE_RATIO;\n    totalSupply_ = INITIAL_SUPPLY;\n    poolBalance = INITAL_BALANCE;\n    gasPrice = 26 * (10 ** 9);\n  }\n}\n",
  "sourcePath": "/Users/tarrence/code/crypto/ethberlin/contracts/tokens/SoulToken.sol",
  "compiler": {
    "name": "solc",
    "version": "0.4.24+commit.e67f0147.Emscripten.clang"
  },
  "schemaVersion": "2.0.1",
  "updatedAt": "2018-09-09T06:46:19.595Z"
}